:020000022000DC
:1070000000000420BD720200E5720200E772020077
:10701000E9720200EB720200ED7202000000000053
:10702000000000000000000000000000EF720200FD
:10703000F172020000000000F3720200F57202001B
:10704000519F0200F7720200D1A80200F7720200FD
:10705000F7720200F7720200D1A30200F772020079
:10706000F7720200F7720200F7720200F772020074
:10707000F7720200F7720200F7720200F772020064
:10708000F7720200618C0200F7720200F7720200D0
:10709000F7720200F772020021CB0200F7720200C1
:1070A000F7720200F7720200F7720200F772020034
:1070B000F7720200F77202000000000000000000FA
:1070C000F7720200F7720200F7720200F772020014
:1070D000F7720200F7720200F7720200F772020004
:1070E000F7720200F7720200F7720200000000005F
:1070F00000000000F772020000000000F7720200BA
:10710000000000000000000000000000000000007F
:10711000000000000000000000000000000000006F
:10712000000000000000000000000000000000005F
:10713000000000000000000000000000000000004F
:10714000000000000000000000000000000000003F
:10715000000000000000000000000000000000002F
:10716000000000000000000000000000000000001F
:10717000000000000000000000000000000000000F
:1071800000000000000000000000000000000000FF
:1071900000000000000000000000000000000000EF
:1071A00000000000000000000000000000000000DF
:1071B00000000000000000000000000000000000CF
:1071C00000000000000000000000000000000000BF
:1071D00000000000000000000000000000000000AF
:1071E000000000000000000000000000000000009F
:1071F000000000000000000000000000000000008F
:1072000010B5054C237833B9044B13B10448AFF3E0
:1072100000800123237010BDB02300200000000077
:10722000D8DB020008B5034B1BB103490348AFF399
:10723000008008BD00000000B4230020D8DB02005D
:10724000A3F5803A704700BF174B002B08BF134BC4
:107250009D46FFF7F5FF00218B460F461348144A61
:10726000121A05F023FE0E4B002B00D098470D4B51
:10727000002B00D098470020002104000D000D488D
:10728000002802D00C48AFF3008005F0DDFD20009F
:10729000290004F009FA05F0C3FD00BF0000080052
:1072A000000000000000000000000420B0230020C7
:1072B000F82C002000000000000000000649074AEA
:1072C000074B9B1A03DD043BC858D050FBDC02F08F
:1072D00091FBFFF7B9FF0000D0DC02000023002083
:1072E000B0230020FEE7FEE7FEE7FEE7FEE7FEE74D
:1072F000FEE7FEE7FEE7FEE7F0B595B000241D4689
:107300000E460846174602F023FA30462346082266
:10731000099505A91A9D08970D950A948DF82C409A
:107320000C9402F079FA9DF814308DF81140DDE9E3
:10733000061003F00302012ACDE9020128D0022A37
:1073400004D0304602F008FA15B0F0BDBDF8165072
:10735000C3F3C2038DF81030C5F389150827082D33
:107360002C4628BF08243B4622460EA9304602F090
:1073700053FA2D1B214608AB02AA0EA8274400F0A1
:10738000C1FD002DEBD1304602F0E6F915B0F0BD9D
:10739000BDF81470059DC7F38312C3F3C2040EA990
:1073A0003046920008238DF81040C7F3831702F08F
:1073B00033FAC5F3952508AB3A4628460EA9009343
:1073C00002AB00F027FD304602F0C6F915B0F0BD63
:1073D000014B01221A70704710240020704700BF33
:1073E00000B583B0044B0093044A4023FFF784FFA9
:1073F00003B05DF804FB00BF01740200D02300203D
:1074000038B50E480E4D03780E4CEB5C0025257008
:10741000D2B253B1043003F0DDFF58B90A4B1B78E8
:1074200013B12378002BFCD038BD0C3003F0EAFCFC
:107430000028F3D000F0F4FFF0E700BF00230020A5
:10744000F42C002010240020CC2300202DE97043D0
:1074500019481A4A0378D35C88B02BB3043003F080
:1074600001FF174D0FCD6C460FC495E80F004FF08C
:10747000EB7684E80F004FF006084FF0FF394FF02D
:10748000FF344FF0FF350C48069600226946CDE9DF
:107490000089CDE9024502F0DDFC48B9094B002224
:1074A0001A7008B0BDE870830C3003F025FCD8E7F3
:1074B00000F0B6FFF2E700BF00230020F42C00200C
:1074C000E8CE0200CC230020F0B5154D0FCD89B0D9
:1074D0006C460FC495E80F004FF0EB7C84E80F007A
:1074E00006264FF0FF374FF0FF344FF0FF350D4ABF
:1074F0000D48CDF818C06946CDE90067CDE90245D1
:1075000002F0A8FC20B9094B01221A7009B0F0BDA5
:1075100000F086FF054B01221A7009B0F0BD00BFD4
:10752000E8CE0200D173020000230020CC2300200B
:1075300008B5FFF7C9FF0448042100F0E9FB034B3D
:1075400001225A7108BD00BFB8DC020014230020DC
:10755000064B074810B500221A7002F0ADF8044639
:1075600010B9044802F0CEF9204610BDE4240020F2
:107570002CDC020040CF020099B10E4B0E495B1A81
:10758000DB0815D030B400220C4D02E001329342EA
:107590000BD035F822408442F8D151F8320030BC8B
:1075A0007047054951F830007047002030BC7047E3
:1075B00018467047B8DC020040DC0200AC23002013
:1075C000094B013903EBC00003290BD8DFE801F0B8
:1075D0000402080604207047022070474079704773
:1075E000007970470020704740DC02002DE9F0432D
:1075F0008C4CD4E901239A4285B060D00023C4F8B2
:107600001834BFF34F8FA568EAB2D31C04EB830193
:1076100014F82330580718D566680B7803F0030375
:10762000012B42D0022B03D14B88023505EB931579
:10763000EAB2D4F81804D31C04EB830128B9AE4293
:1076400039D914F823305B07E7D404EB82026B1CB2
:10765000D2680192DBB204EB830302F00302DB6821
:107660000293022A05F102062DD0012A00F08D8036
:10767000D4F810543DB12B6828469B689847EB68B6
:107680001D68002DF7D16848684B6949C01AC008C9
:10769000000440F0020000F0D1F8D4E90130C01A33
:1076A00018BF012005B0BDE8F0830B880235C3F395
:1076B00083131D44BCE7A66005B0BDE8F08300203D
:1076C00005B0BDE8F083BDF806305A48C3F3891809
:1076D0004546502D28BF502565F38F1305F108014D
:1076E000ADF8063001F0EAFF07460028C0D002F0EE
:1076F0002FF8002301A90822384602F059F8F34375
:10770000DBB20133B5EB830F4FEA8309F1B277D9CE
:10771000A5EB0905033104EB810108234A463846ED
:10772000EDB202F045F844492A4609F1080338460B
:1077300002F03EF808F1030806EB9806D4F8183476
:10774000002B6AD1D4F8105465B1EB685A792846F9
:107750003946002A5DD02B681B689847EB681D6886
:10776000002DF2D1384601F0F7FF00230DF10300A0
:107770008DF8033001F0E0F8D4F8183403B9A660AE
:107780009DF8030001F0FEF887E7BDF804302948B2
:10779000C3F38312062A28BF0622911C62F38913C1
:1077A0008900ADF8043001F089FF074600283FF456
:1077B0005FAF01F0CDFF0023082201A9384601F098
:1077C000F7FFBDF8043013F4707FB7D06FF00108F5
:1077D000A8EB05080825F1B203312B46042204EB7F
:1077E0008101384601F0E4FFBDF80420013608EBC2
:1077F0000603C2F383129A4205F10405EBD89DE714
:1078000003312A4604EB81010823384601F0D0FFFA
:1078100090E71D68002D98D1A4E7384601F09CFF41
:107820003BE700BFE424002068DC020040DC0200EB
:1078300028CF02002CDC0200F02400202DE9F04FBC
:107840005E4C87B0002306460DF10B008DF80B301F
:107850000F4601F071F8D4E9015303F580735B1B07
:10786000012B7DD804F21C4804F5836A04F2144904
:107870001AE0BDF80E30C3F389130333090C0BEB88
:10788000930B4846019101F0FFFA0199002839D085
:107890004046C4F808B001F0CBFAD4E9013202F551
:1078A0008072D21A012A5CD80121404601F0C0FA48
:1078B000504601F0D9FA484601F0D6FAA368DAB288
:1078C000D11C04EB810014F8211001F0040C4907CD
:1078D00028D404EB8202591CD2680392C9B204EB8B
:1078E000810102F00302012AC96803F1020B30D0C2
:1078F000022ABED000214846019101F0C5FA019943
:107900000028C5D14046C6E743880EEB9313DAB290
:10791000D11C04EB810014F8211001F0040CBCF11F
:10792000000FD6D0017801F0030101290BD0022904
:1079300003F1020E02F10301E6D004EB8100BCF179
:10794000000FEFD1C5E702880233C2F3831213445C
:10795000DDE7BDF80C30C3F38313090C9B4490E7BB
:107960002B46DAB20332023305219DF80B0044F8AE
:107970002210636001F006F80021114801F02EFA90
:1079800080F31000F1006B1C01F03801DBB2EDB2A6
:1079900004EB830341F001010004033540EA16467D
:1079A00041EA8727DE6044F8257023781BB1FFF792
:1079B0001DFE0028FBD107B0BDE8F08FE4240020B5
:1079C000002900202DE9F04F634C87B000230646C4
:1079D0000DF10B008DF80B300F46904600F0ACFF18
:1079E000D4E9015303F580735B1B022B7FD804F2AB
:1079F0001C4904F5836B04F2144A1BE0BDF80E2009
:107A0000C2F389120332090C03EB92035046CDE90D
:107A1000003101F039FA019900283AD0009BA360A7
:107A2000484601F005FAD4E9013202F58072D21A13
:107A3000022A5DD80121484601F0FAF9584601F0C2
:107A400013FA504601F010FAA368DAB2D11C04EB25
:107A5000810014F8211001F0040C490729D404EB2B
:107A60008202591CD2680392C9B204EB810102F070
:107A70000302012AC96803F1020331D0022ABDD0F2
:107A800000215046CDE9003101F0FEF901990028AE
:107A9000C4D14846C5E743880EEB9313DAB2D11C34
:107AA00004EB810014F8211001F0040CBCF1000F6C
:107AB000D5D0017801F0030101290BD0022903F18F
:107AC000020E02F10301E6D004EB8100BCF1000FCD
:107AD000EFD1C4E702880233C2F383121344DDE717
:107AE000BDF80C20C2F38312090C13448EE72B4619
:107AF000DAB20332033345219DF80B0044F822101B
:107B0000636000F03FFFAB1CDBB204EB830300219A
:107B10001248C3F80C8001F061F980F31000F10005
:107B20006B1C01F03801DBB2EDB204EB830341F0D2
:107B300041010004033540EA164641EA8727DE602A
:107B400044F8257023781BB1FFF750FD0028FBD1C6
:107B500007B0BDE8F08F00BFE4240020002900201A
:107B60002DE9F04F684C89B0002506460DF1130051
:107B70001F468DF813508846039200F0DDFED4E9CD
:107B8000015303F580735B1B032B00F2828004F228
:107B90001C4904F5836B04F2144A1BE0BDF816205F
:107BA000C2F389120332090C03EB92035046CDE96C
:107BB000013101F069F9029900283BD0019BA360D3
:107BC000484601F035F9D4E9013202F58072D21A43
:107BD000032A5FD80121484601F02AF9584601F0EE
:107BE00043F9504601F040F9A368DAB2D11C04EB26
:107BF000810014F821C01CF0040F0CF0040128D1FE
:107C000004EB8202591CD2680592C9B204EB8101CF
:107C100002F00302012AC96803F1020332D0022AEA
:107C2000BCD000215046CDE9013101F02DF9029977
:107C30000028C3D14846C4E743880EEB9313DAB259
:107C4000D11C04EB810014F8211001F0040100297B
:107C5000D6D090F800C00CF0030CBCF1010F0BD093
:107C6000BCF1020F03F1020E02F1030CE4D004EBAD
:107C70008C000029EDD1C3E702880233C2F38312DE
:107C80001344DCE7BDF81420C2F38312090C13443B
:107C90008CE72B46DAB20332043385219DF81300BA
:107CA00044F82210636000F06DFEAA1CEB1CDBB2EE
:107CB000D2B204EB830C04EB8202039B1348D36023
:107CC0000021CCF80C7001F089F880F31000F1006D
:107CD0006B1C01F03801DBB2EDB204EB830341F021
:107CE00081010004033540EA164641EA8821DE603E
:107CF00044F8251023781BB1FFF778FC0028FBD14E
:107D000009B0BDE8F08F00BFE42400200029002066
:107D100030B4154DD5F810140446002071B10B464F
:107D200001E01B6853B1DB681A798242F9D1013056
:107D30000A28F3D14FF0FF3030BC7047E368187168
:107D4000D5F810344BB1DA68E36812681A60D5F8D8
:107D50001034DB681C6030BC7047C5F81044E26822
:107D6000136030BC704700BFE424002038B5084BD6
:107D7000D3F8104401251D704CB1E3685D71236890
:107D800020465B689847E3681C68002CF5D138BD35
:107D9000E424002030B5C38885B004460D461BBBE3
:107DA000217A05291ED0627A82B9134AA08852F836
:107DB000212003920021FFF7DFFB039A0F490346BE
:107DC000284605B0BDE8304001F0DAB8A088FFF7DA
:107DD000F7FB0B4B0B4953F82020284601F0D0F855
:107DE000217AE2E705B030BD074A00920749084A08
:107DF000284601F0C5F8D3E718D0020078CF02007A
:107E0000F4CF020074CF02006CCF020054CF020006
:107E10004CCF02002DE9F04385B04FF0000C0C9CD4
:107E2000814694F80C8084F80CC00E46174618461C
:107E300021461D46FFF7AEFF062F09D8DFE807F001
:107E4000042E343B444F1F004946204601F098F869
:107E50002B7A052B05D06B7A5BB92749204601F0B8
:107E60008FF8204601F080F884F80C8005B0BDE85A
:107E7000F083224A2249204601F082F8EDE7D6E954
:107E80000413F2680393B3680291CDE900324946C6
:107E9000D6E90023204601F073F8D9E73268494655
:107EA000204601F06DF8D3E7D6E900234946204685
:107EB00001F066F8CCE7B3680093D6E900234946A1
:107EC000204601F05DF8C3E7D6E902320192009343
:107ED000D6E900234946204601F052F8B8E7D6E932
:107EE0000321B3680291CDE900324946D6E9002367
:107EF000204601F045F8ABE784CF02006CCF0200CA
:107F000074CF0200082900D970472DE9F04F9B4635
:107F100083B000241B7B8BF80C400D460646594667
:107F2000104690460193DFF8D0902C4FFFF732FFB8
:107F300005E0325D013401F023F8082C09D0A54298
:107F400039465846F5D84946013401F019F8082C4D
:107F5000F5D12349DFF8A490224C234F584601F075
:107F60000FF84FF0000A0DE0D15D11F0970F08BF38
:107F70002E22214658460AF1010A01F001F8BAF111
:107F8000080F10D0554505D916F80A207E2AEBD9DE
:107F90002E22EEE7494658460AF1010A00F0F0FFAA
:107FA000BAF1080FEED198F80830052B02D098F8F6
:107FB000093063B90D49584600F0E2FF584600F019
:107FC000D3FF019B8BF80C3003B0BDE8F08F084A5B
:107FD0000849584600F0D4FFECE700BF88CF020004
:107FE00094CF020098CF0200D1DA020084CF0200C1
:107FF0006CCF020074CF020090CF020080CF02004D
:1080000038B5174B1D783DB3164B1968C0B2002325
:108010000C4604E00133AB4204F108041CD011F813
:1080200033209042F6D102F0C3F96378A3F1010343
:10803000B3FA83F35B09834200D038BD0A4BD3E91E
:1080400000231343F9D1094B094819680022BDE800
:108050003840490800F008BC00231B78FFDE00BF51
:108060009C290020F0290020C8290020A0290020F8
:10807000A82900202DE9F04FDFF8548298F800304D
:1080800083B0002B00F01981DFF848928C4F8D4EA1
:1080900000254FF0010A3C6814F8350002F088F919
:1080A00004EBC50314F835405B784FEA540C14F028
:1080B000010E16F80C10A3F10103B3FA83F314BFF9
:1080C0000A0901F00F025B09042A00F2A080DFE830
:1080D00002F0725D32200300834240F0AB80BEF1BB
:1080E000000F0CBFF0230F2303EA01030CBF032191
:1080F0003021194306F80C1098F8002001359542FC
:10810000C9DBD9E90023134340F0CD8003B0BDE8BB
:10811000F08F83427BD0BEF1000F0CBFF0230F2302
:1081200003EA01030CBF04214021194306F80C1097
:1081300098F80020E2E783426CD1BEF1000F0CBF3B
:10814000F0230F2303EA010398F800200CBF03215A
:108150003021194306F80C10002AD2D0D7F800C0FD
:108160000023614603E0934201F10801C6D01CF8E8
:108170003300A04203F10103F5D14B68002BBDD0C1
:1081800020460121984798F80020B7E7834219BF9D
:108190000020034602232020BEF1000F0CBFF02276
:1081A0000F2201EA020118BF03460B4306F80C3008
:1081B00098F80020A2E7834229D1BEF1000F14BF36
:1081C0000F23F02303EA010314BF102101211943F7
:1081D0000DF107004FF0000306F80C108DF8073082
:1081E00000F0AAFBD9E90032A4F12001C4F120007B
:1081F0000AFA01F12AFA00F001430AFA04F41143E1
:1082000023439DF80700C9E9003100F0BBFB98F853
:10821000002073E7BEF1000F0CBFF0230F2303EA29
:1082200001030CBF01211021194306F80C1098F826
:10823000002063E7BEF1000F14BF0F23F02398F86E
:108240000000194006F80C1098B1D7F800C00023C0
:10825000624603E0834202F108020AD01CF83310A0
:10826000A14203F10103F5D1536813B10021204667
:1082700098474FF000030DF107008DF8073000F02C
:108280005BFBD9E90032A4F12001C4F120000AFA15
:1082900001F12AFA00F001430AFA04F422EA01018A
:1082A00023EA0403ADE7084B08481968002249088F
:1082B00000F0DAFA03B0BDE8F08FDFF8189020E79D
:1082C000F0290020D0290020A0290020A829002082
:1082D0009C290020C8290020092A43D92DE9F04112
:1082E00082B0144606460D4601F0C0FE002832D08A
:1082F000214A2249224B16600D7022481C60002141
:10830000202204F0D3FD204B002000216C1EC3E985
:108310000001E4B245B3DFF87C8006EBC404032718
:1083200002E0A64220D01C469DF80630A5782078B1
:108330008DF8047023F00703424601A98DF806303A
:108340008DF8055001F09CFEA4F108030028E8D048
:1083500002B0BDE8F08101F031FE0028C8D002B0C3
:10836000BDE8F08107207047084A0948002100F065
:108370006DFA02B0BDE8F081F02900209C290020B0
:10838000A0290020D0290020C829002075800200E3
:1083900038D002000180020070B5084D2B785BB127
:1083A000074E00243368012113F8340001F05AFF0E
:1083B0002B780134A342F5D8002070BD9C29002001
:1083C000F029002070B5124D2B7882B053B1114EB8
:1083D0000024336813F8340001F0B0FF2B78013427
:1083E000A342F6D800230DF107008DF8073000F006
:1083F000A3FA094B9DF8070000240025C3E90045B6
:1084000000F0C0FA054800F075FA02B070BD00BF78
:108410009C290020F0290020C8290020A82900203C
:1084200000B585B00346002101AA44F20100CDE960
:108430000111039300F004F805B05DF804FB00BFE0
:1084400010B572B6FFF792FCFFF7D0F80028FBD109
:10845000104B114C1149E41AE408240444F00100C3
:10846000FFF7ECF90E4B1B68DB0700D500BE0D498A
:1084700044F00200FFF7E2F9BFF34F8F0A490B4BBC
:10848000CA6802F4E0621343CB60BFF34F8F00BFB2
:10849000FDE700BF40DC020068DC02003CD00200C7
:1084A000F0ED00E048D0020000ED00E00400FA0525
:1084B000D0E90223D1E90201994208BF90422CBFC2
:1084C00001200020704700BF2DE9F04F2DED028BF9
:1084D00085B0064600F082FB40B1B54AD2E90031D2
:1084E00013F1807341F10001C2E9003100213046EF
:1084F00000F090FBAF4C60B1236853B1AE4B2568E0
:108500001B7823B11DB12B7F002B40F01C81002371
:1085100023600121304600F07DFB002840F0F6800A
:10852000A64803A900F0FCFB78B3A54DDFF88882CC
:10853000A24F0BE0002B00F0CD8003A9384600F0DD
:108540001FFC03A9384600F0EBFBF0B10378012BC8
:1085500012D0022BEED128464FF0000901F00AFAA2
:1085600030B180F81C90284601F004FA0028F8D1B8
:10857000012388F80030E0E741682368994200F061
:10858000BA80284601F000FAD7E7DFF834828D4F31
:10859000DFF81C9208EE106A37E0404601F0EAF975
:1085A00005463846AB68EA680193009200F042FB4A
:1085B000854E8446D9E90001D6E9002310EB0C0072
:1085C00041F10001994208BF9042DDE9002303D246
:1085D00010F1807041F10001B3EB000A62EB010B76
:1085E000BAF1010F7BF1000329DBBAF5350F6BD22D
:1085F000AA684FF496030021384600F069FA002873
:108600005AD00D281FD000232360404601F0B8F94E
:10861000002873D02368002BBFD02368D0E9020163
:10862000D3E90223994208BF904248D223681B7FB6
:10863000002BB2D02168404601F088F9ADE7002157
:10864000384600F0DBFA5C4B1B78002BDBD02B7F2D
:10865000002BD8D0384600F0EDFA8446D9E9000165
:10866000D6E9002310EB0C0041F10001994208BF4C
:10867000904203D210F1807041F10001D5E902234C
:10868000994208BF904259D32B6903B92B77D5E99A
:108690000530984729690029B5D02B7F002BB2D02F
:1086A000D5E90223521843F10003C5E90223294604
:1086B000404601F04BF9A6E72368BBB1256005B041
:1086C000BDEC028BBDE8F08F384600F0B3FA3F4AAC
:1086D00002448EE743681A7F002A7FF42EAF0122FE
:1086E0001A774168284601F031F926E718EE100A9A
:1086F00000F0C0F9E2E7002323601EE72368002BA7
:10870000DDD118EE100A00F0B9F9D8E72D482E4D4A
:1087100000F090FA264BD3E90089D5E9002318EB45
:10872000000849F10009994508BF904503D218F1A6
:10873000807849F10009C5E90089F1E629464046FB
:1087400001F004F95FE71F4800F074FA184A1E4B65
:10875000D2E90089D3E9002318EB000849F10009A8
:10876000994508BF904503D218F1807849F1000976
:10877000D5E90223994508BF904529D32B6903B950
:108780002B77D5E905309847296900293FF4BFAE1A
:108790002B7F002B3FF4BBAED5E90223521843F1E7
:1087A0000003C5E902230648294601F0CFF8AEE6EA
:1087B000F8290020782A0020002A00205C2A0020C6
:1087C00068D002001C230020702A0020FFFFB400A4
:1087D0000248294601F0BAF899E600BF68D00200C5
:1087E00010B5134B13491B68134882B058220193EC
:1087F000082300F03FFA044610B1204602B010BD35
:108800000E4A0F4801A900F0D5F804460028F4D11B
:108810000B48012100F0D8F901231946094A0848FC
:1088200000F030F9084B012220461A7002B010BD4A
:1088300064D00200042A00205C2A0020C9840200BF
:108840001C230020FFFF7F00002A00204AB1A1F175
:1088500001010368B1FA81F14909C3E9041200205A
:1088600070470720704700BF037F0BB1002070479F
:10887000F0B5826183B004461A480D4600F0DAF97B
:10888000194B1A49D3E90023D1E90067121843F1C3
:108890000003BB4208BFB24203D212F1807243F11F
:1088A00000035219216943F10003C4E9022301B115
:1088B00025610F4801A900F0F5F948B10025446091
:1088C000057001A90A4800F01BFA20B903B0F0BDF9
:1088D000042003B0F0BD034800F0B0F9284603B00F
:1088E000F0BD00BF1C230020F8290020702A0020C2
:1088F0005C2A002030B5002583B00446057701A925
:108900000B4800F0CFF978B101224460027001A950
:10891000074800F0F5F908B903B030BD054800F08C
:108920008DF9284603B030BD042003B030BD00BF30
:108930005C2A00201C23002070B4EFF3108472B670
:108940000D4B9A68AAB90D490D4E01259D60D1F8CD
:10895000805035401D60C1F88060D1F884505D6062
:108960004FF0FF33C1F88430027004B962B670BCB6
:10897000704701230370F8E7E82C002000E100E0D5
:10898000FC06FFBD094B9A687AB170B910B4EFF3D9
:10899000108172B6064A1C6814605C685460986066
:1089A00001B962B65DF8044B70477047E82C0020AF
:1089B00000E100E070B5274C4379274E04EBC30576
:1089C00046F823202D79002D37D103680A88C3F893
:1089D000082590F904308A78002B26DB03F16043E8
:1089E00003F561435201D2B283F8002390F90430B9
:1089F000002B07DB194903F01F0501225B09AA4080
:108A000041F823204279164B164D44F83200581B8A
:108A100004EBC204C008012300041349237140F091
:108A20000300FEF70BFF002070BD104903F00F0399
:108A300052011944D2B20A76D8E70A4B08480C49C9
:108A4000C01AC008000440F00200FEF7F7FE08203C
:108A500070BD00BF7C2A0020842A002000E100E0D5
:108A600078DC020040DC020098D00200FCEC00E060
:108A700074D00200036801221A6070470368012263
:108A80005A607047F0B404684FF480358D40C4F8E4
:108A90000853066801F15004C6F84853A40006685C
:108AA000A4B20027375182B036590468019601F507
:108AB000A87122F07F42019E44F821200268C2F88A
:108AC000445313B10368C3F8045302B0F0BC7047B9
:108AD0002DE9F04704464FF4803600688E40C0F818
:108AE00048632068C0F80863206800EB81058A4667
:108AF000D0F80415D5F84005C5F840150AF1500521
:108B0000AD002768ADB24FF0000847F8058082B08D
:108B1000401A7F59009720F07F40012822F07F47BC
:108B20009946009A41D02268D2F80455C2F84463AD
:108B30007A1B22F07F42012A0AF5A87125D022680B
:108B400042F821702068D0F804557A1BC9F1FF1350
:108B5000013A03F57F4322F07F42934211D342B1A1
:108B6000C0F8446323680020C3F8046302B0BDE882
:108B7000F087013740F821702068D0F804359D4215
:108B8000EED00D2002B0BDE8F08720680D4B013714
:108B900040F8217043F001034FF48060984720684B
:108BA000D0F804359D42DBD0EBE7064A4FF48060F5
:108BB00042F001029047226842F805805259019222
:108BC000019AB0E7B0D0020002680223C2F8443331
:108BD00011B10268C2F80433704700BF0368D3F8CC
:108BE000040100B97047002282B0C3F80421D3F811
:108BF00004310193019B012002B0704702684FF4D9
:108C0000803303FA01F1C2F848130368C3F808136C
:108C1000704700BF50318900036889B2585800B9C5
:108C2000704700225A5082B05B580193019B01208B
:108C300002B070470368D3F80405704790F9043018
:108C4000002B09DB5A090548403203F01F030121BC
:108C500001FA03F340F82230704700BF00E100E062
:108C6000024A034B10681B68184700BF7C2A00208B
:108C7000842A002099B110B4B2FBF3F403FB14244E
:108C8000A4B244B9C0E9001484608281C381204643
:108C90005DF8044B704709205DF8044B70470E20C7
:108CA000704700BF30B482B050E8013F9DB2C48924
:108CB00025448489A54228BF2D1B0489A54202BFF3
:108CC000BFF32F8F002207E0C5EA030540E80154F7
:108CD000002CE9D14FF001028DF803200193019B94
:108CE0009DF803200B602AB10B880068184402B07D
:108CF00030BC704702F0FF03184602B030BC70472A
:108D00000A884B889A4201D00020704750E8012F12
:108D1000C2EA024240E80123002BF7D1012070474C
:108D200030B482B050E8023F1FFAA3F5C488A542D0
:108D300002BFBFF32F8F00220DE0C4892544848930
:108D4000A54228BF2D1BC3EA054540E80254002C6C
:108D5000E8D14FF001028DF803200193019B9DF8AB
:108D600003200B602AB14B880068184402B030BC65
:108D7000704702F0FF03184602B030BC704700BFD6
:108D80000A884B889A4201D00020704750E8022F91
:108D9000C2EA224240E80223002BF7D101207047AB
:108DA0004A09012301F01F0100EB820003FA01F1DF
:108DB00000F022B801F01F0201234909934000EBA3
:108DC0008100D94300F026B84B0901F01F0150F88B
:108DD0002300C84000F00100704700BF10B40346F4
:108DE00053E8000F0A4643E8002494F0000FF7D13F
:108DF0005DF8044B704700BF10B4034653E8002FE2
:108E000042EA010043E8000494F0000FF6D15DF857
:108E1000044B704710B4034653E8002F02EA0100E8
:108E200043E8000494F0000FF6D15DF8044B70475E
:108E300010B4034653E8002F02EB010043E800049E
:108E400094F0000FF6D15DF8044B704710B4034660
:108E500053E8002FA2EB010043E8000494F0000F58
:108E6000F6D15DF8044B704710B40346012253E875
:108E7000001F41EA020043E8000494F0000FF6D11D
:108E80005DF8044B704700BF10B40346002253E85E
:108E9000000F00EA020143E8001494F0000FF6D13D
:108EA0005DF8044B704700BFB8B130B4D0E901128F
:108EB000521A0468D2B2531E2160DBB242B101687B
:108EC0000A685C1E551C0D601370E3B2FF2BF6D1CF
:108ED00003680020187130BC70470E20704700BF37
:108EE000F0B583B0044600250DF107008DF807505A
:108EF000FFF722FDD4E900311A688A4210D9511EC9
:108F000019602168A3680F6812F8015C0A79268A43
:108F1000E068DB1BDBB29A4206FB050538BF0B712C
:108F20009DF80700FFF72EFD284603B0F0BD00BFF7
:108F300030B5054683B000230DF107000C468DF8CF
:108F40000730FFF7F9FC2A681368591C1160E968BB
:108F50002A8A641AB4FBF2F41C709DF80700FFF72C
:108F600011FD03B030BD00BF826842B110B50446A8
:108F700043690168006998470023A36010BD7047EA
:108F80000EB400B582B0039921B104AB01AA0193DC
:108F900000F0ACF802B05DF804EB03B0704700BF1E
:108FA0002DE9F04F164683B0B142DDE90C920F4631
:108FB00005469A46C0F095800B464FF00108B3FB7A
:108FC000F6F39E4208F10108F9D9D04538BFD046E2
:108FD00012F00103019302D1B9F1000F5ED1AA682A
:108FE000012403E00AF1FF3A06FB04F4BAF1010F91
:108FF000F8D8B7FBF4F39E42F6D9DFF8ECA007E00F
:10900000B442B4FBF6F31AD3AA681C46B7FBF3F3D9
:109010001AF803B0BBF10A0F04FB137728D02B68B2
:10902000511CA96003F802B0D5E901329A42E7D396
:109030002846FFF799FFB4FBF6F3B442E4D2019B54
:109040009BB1B9F1000F10D02024C84509F1FF39B8
:109050000BD2AB682A68591CA960D454D5E90132F7
:109060009A4214D2B9F1000FEFD103B0BDE8F08FEE
:10907000511C2B68A9604FF00D019954D5E90132BC
:109080009A42CCD32846FFF76FFFAA68C7E7284665
:10909000FFF76AFFB9F1000FD7D1E6E793071AD4BB
:1090A0002024AA68C84502F1010199D22B68A96061
:1090B0009C54D5E901329A4209F1FF3903D2B9F142
:1090C000000FEFD18CE72846FFF74EFFAA68B9F1F1
:1090D000000FE7D184E7BAF1000F0CBF3024202441
:1090E000DFE74FF0010870E7B8D00200002900F078
:1090F00054822DE9F04FDFF8B8950C7885B006461C
:1091000090460D464FF00D0A10E00A2CB36800F0AF
:10911000AD803268591CB160D454D6E901329A420C
:1091200080F0A0802C78002C00F087800135002C86
:1091300000F08380252CE8D1294600270D4611F840
:10914000012B2D2A00F08880302A00F088802B2AFD
:109150007AD02A2A00F09980A2F13003092B4FF02F
:1091600000040BD804EB840402EB440415F8012F2F
:10917000A2F13003092BA4F13004F3D92E2A00F018
:109180009080002301E015F8012F02F0FB0168290F
:10919000F9D0252A00F07781583AD1B2202947D852
:1091A000202A45D8DFE812F035014400440044008D
:1091B000440044004400440044004400440043018F
:1091C00013014400440044004400130144004400DF
:1091D0004400440044004400D20044004400A20083
:1091E00044009400440044003501012098420246A6
:1091F00038BF1A460292002C40F05081B80740F167
:109200006E81002B40F04E821C46BBF1000FC0F275
:109210000A827A0700F11A8207F00302022A00F09C
:10922000EA81CDE9004759460A223046FFF7B8FEE9
:1092300001352C78002C7FF479AF337B002B40F084
:109240001C8105B0BDE8F08F0D4611F8012B2D2AC9
:1092500047F004077FF478AF47F001076EE747F067
:1092600002076BE73046FFF77FFE5BE73268591C69
:10927000B16002F803A0D6E901239342FFF449AF9D
:109280003046FFF771FEB36843E7D8F800301A1D87
:10929000C8F800206A781C682E2A05F101057FF4C1
:1092A00070AF6A78A2F13003092B05F101054FF088
:1092B00000033FF66AAF03EB830302EB430315F8A9
:1092C000012FA2F130010929A3F13003F3D95CE7A2
:1092D000D8F80020111DC8F8001011683046CDE9FB
:1092E00000470A22FFF75CFE0135A2E7D8F80030FC
:1092F0001A1DC8F8002017F00107D3F800B040F09D
:10930000F080BBF1000F03D0584603F0D7FD0746AD
:10931000BC4240F24381002C00F04081202205E055
:10932000BC4200F03B81002C00F03881B16833680A
:10933000481CB0605A54D6E90130984204F1FF3419
:10934000EED33046FFF710FE2022E9E7D8F80020E0
:10935000131DC8F80030B36831681768581C3022F4
:10936000B060CA54D6E90123934280F0EF8032689E
:10937000581C7821B060D154D6E901329A4280F06D
:10938000E0800F2F03D93B461B090F2BFCD84FF071
:10939000805406E00F2C4FEA14137FF649AFB268F1
:1093A0001C46B7FBF4F319F803B0BBF10A0F04FB3A
:1093B000137754D03368511CB16003F802B0D6E97A
:1093C00001329A42E6D33046FFF7CEFDE2E7D8F805
:1093D0000020111DC8F80010D2F800B08BEAEB7223
:1093E000A2EBEB72092A7FF700AFDFF8C8C20120B9
:1093F00011466329ACFB02E200F101004FEAD20200
:10940000F6DC9842024638BF1A460292002C45D13B
:10941000F4E6D8F80020111DC8F800101168304695
:10942000CDE900471022FFF7BBFD013501E7D8F871
:1094300000301A1DC8F800201C78B3680A2C00F010
:1094400011813268591CB160D454D6E901329A4274
:10945000FFF4EEAE3046FFF787FD0135E9E63368ED
:10946000511CB16003F802A0D6E901329A42A1D39F
:109470003046FFF779FDB2689CE7304605B0BDE89D
:10948000F04FFFF771BDB3683168581CB060CA5423
:10949000D6E901329A42DDD20135CAE6BBF1000FAE
:1094A00059DB7A0757D4B80702D5002B3FF4ADAE8D
:1094B000F9073FF5AAAE94B120220299A142BFF468
:1094C000A4AEB168481CB06030684254D6E90101CE
:1094D000814204F1FF3480F0D480002CEDD10024CF
:1094E00093E69BF80030002B00F0E080B0685F4608
:1094F000CBF101020A2B02EB070B3CD0411CB160FF
:1095000031680B54D6E90130984226D217F8013F52
:10951000002BEFD15C457FF68BAE202702E05C4547
:109520003FF486AEB2683368511CB1609F54D6E9EF
:1095300001329A4204F1FF34F1D33046FFF714FDB3
:10954000EDE73046FFF710FDB2681AE73046FFF747
:109550000BFDB3680BE7013CA5E730460292FFF72D
:1095600003FD17F8013F002BD4D0029AB0680A2BF4
:1095700002EB070BC2D1411CB160316801F800A0B9
:10958000D6E901108842B9D33046CDE90232FFF75F
:10959000EBFCDDE90232B068B0E770479BF80040B1
:1095A000002C3FF445AE0A2CB0680ED03368421C44
:1095B000B2601C54D6E90130984214D21BF8014F16
:1095C000002C3FF435AE0A2CF0D13368421CB26057
:1095D00003F800A0D6E901309842E7D33046FFF700
:1095E000C3FCB068E2E73046FFF7BEFC1BF8014F52
:1095F000002CD8D11CE6002B7FF413AE8CB13022A6
:109600000299A142BFF40DAEB168481CB060306849
:109610004254D6E90101814204F1FF343BD2002CCF
:10962000EED10024FDE5B1684A1CB26032682D20FD
:109630005054D6E901219142CBF1000BFFF4ECAD7F
:1096400030460393FFF790FC039BE5E5B1684A1CA5
:10965000B26032682B205054D6E901219142FFF4C8
:10966000DBADEDE73268591CB16002F803A0D6E922
:1096700001239342FFF4E5AE3046FFF775FCB36873
:10968000DFE630460393FFF76FFC039B2022002C9C
:109690007FF413AF23E730460393FFF765FC039B8A
:1096A0003022BCE7F9073FF5B0AD18E79B4631E73C
:1096B000B8D00200CDCCCCCCFFF7F6BB2DE9F04101
:1096C000058A0331043D4E198046B6FBF5F6FFF7D7
:1096D00007FCA0B3F6B24FF48073013E0446C58088
:1096E000C0F8008083802BD00346002508E0627913
:1096F000AE4202F1010262713860C0F800801FD0F2
:1097000040461F46FFF7ECFB013503460028EED12B
:109710006779791E17D02246013399421268FBD12E
:10972000D2F800805FB12668002501E03446366833
:10973000214601354046FFF7FBFBAF42F6D8002437
:109740002046BDE8F08120682146FFF7F1FBF6E7EF
:1097500004300121FFF76CBB2DE9F04101210446E3
:109760000430FFF773FB10F0FF0301D0BDE8F08178
:109770006779791E16D02246013399421268FBD1CF
:10978000D2F80080002FF1D02668002501E0344691
:109790003668214601354046FFF7CAFBAF42F6D88E
:1097A000BDE8F08120682146BDE8F041FFF7C0BB6D
:1097B0002DE9F8430546C6884079144606FB00F2B9
:1097C000043A04EB030C1F1D624538BFD41ABE4295
:1097D0008846B7FBF6F106FB117002D801392D68F7
:1097E000FCD1371AA74228BF27469CB14FF0000989
:1097F0000430E41B28443A4608EB090103F048FB17
:10980000A642B9442D6837464FF0000028BF2746CE
:10981000002CEDD1BDE8F8832DE9F8430546C68854
:109820004079144606FB00F2043A04EB030C1F1DBA
:10983000624538BFD41ABE428846B7FBF6F106FB34
:10984000117002D801392D68FCD1371AA74228BF00
:1098500027469CB14FF0000904302918E41B3A4612
:1098600008EB090003F014FBA642B9442D68374603
:109870004FF0000028BF2746002CEDD1BDE8F8834B
:1098800041DF7047064A074B10B5002414701C6076
:10989000BFF35F8F0449054800F042F8204610BD31
:1098A000902A0020942A0020D4D00200882A002088
:1098B00000B583B000230DF107008DF80730FFF7E6
:1098C0003BF8F1EE103A23F09F03E1EE103ABFF3BC
:1098D0005F8F0B4B4022C3F884219DF80700FFF7F0
:1098E00051F803F017F928B920BF40BF20BF03B0DB
:1098F0005DF804FBFFF7C4FF03B05DF804FB00BF95
:1099000000E100E08268002393608268136182684E
:1099100053618268D36082685360826813607047C5
:1099200001600B6843604A68934204BF00234360B0
:10993000704700BF436843B1026891680B444360BD
:109940005268934204BF00234360704770B5446877
:10995000064620680D4618B908E02468206828B13A
:10996000B368294698470028F7D120682860256009
:1099700070BD00BF4368186808B102681A6070477C
:1099800043681868704700BF4368186818B908E052
:109990000346006828B18142FAD10A681A600120A2
:1099A00070477047114910B4A1F5947205E052F860
:1099B0003330984238BF21460CD28C1AE30F03EBA8
:1099C000E4035B10914202EBC304F0D808485DF851
:1099D000044B704702D904F10802EEE76068044BBB
:1099E0005DF8044B002808BF1846704714D60200E3
:1099F000D8D4020010B4754B1B68082B1CD0744AD5
:109A0000D2F8883043F47003C2F88830BFF34F8F28
:109A1000BFF36F8F4FF01023D3F80022002AC0F25B
:109A2000A380D3F80432002BC0F29E80694B6A4AAF
:109A30001A605DF8044B70474FF080414FF0805240
:109A40000020C1F80C01654BC1F81001C1F83805C0
:109A5000D2F80414C3F82015D2F80814C3F824155A
:109A6000D2F80C14C3F82815D2F81014C3F82C152A
:109A7000D2F81414C3F83015D2F81814C3F83415FA
:109A8000D2F81C14C3F84015D2F82014C3F84415BA
:109A9000D2F82414C3F84815D2F82814C3F84C158A
:109AA000D2F82C14C3F85015D2F83014C3F854155A
:109AB000D2F83414C3F86015D2F83814C3F864151A
:109AC000D2F83C04C3F868054549D2F84004C3F80D
:109AD0006C050968D2F84424C3F87025032937D8E7
:109AE000404B5B5C13B1404B404A1A60404B5B5C9F
:109AF00063B1364B3F491B68394AFB20C1F8180552
:109B0000082B11687FF47BAF032921D83A4B5B5CAB
:109B100093B13A483A4B2D4C02681B68246830498F
:109B200022F00F0203F00F031343082C09680360AF
:109B30007FF465AF03290BD8324B5B5C43B1234BF9
:109B4000314A1B684FF40071082B11607FF457AF46
:109B50004FF08043D3F80024D2077FF550AF6FF069
:109B60000102C3F800244AE7284A0123C2F8043559
:109B7000D2F80034002BFBD04FF010231221234ADF
:109B8000C3F80012D2F80034002BFBD04FF01023A2
:109B900012211E4AC3F80412D2F80034002BFBD065
:109BA00000231A49C2F80435D1F80034002BFBD049
:109BB000BFF34F8F0649164BCA6802F4E0621343A5
:109BC000CB60BFF34F8F00BFFDE700BF3001001037
:109BD00000ED00E0242300200090D00300C00040EE
:109BE0003401001014D602008C5600404881030056
:109BF00014D6020000F0004014D60200E40E00402B
:109C00005802001014D602004096024000E00140C5
:109C10000400FA05064B1A5C1F2A86BF054902F0AC
:109C20001F024FF0A04101239340C1F80C3570474B
:109C300018D6020000030050064B1A5C1F2A86BF8C
:109C4000054902F01F024FF0A04101239340C1F8E3
:109C50000835704718D6020000030050C20730B420
:109C60000ED483070AD54FF0A0430C22C3F82C274B
:109C7000C3F83027C3F86027C3F8642730BC7047A7
:109C80004FF0A0430322C3F834274FF40055C3F824
:109C900038274FF48044C3F83C274FF40041C3F801
:109CA00040274FF48032C3F80855C3F80845C3F87D
:109CB0000815C3F80825D4E710B568B90E4CA36899
:109CC000012262703BB1D3E900230020A2609847D3
:109CD000A368002BF7D110BD0128FCD1064C2369E5
:109CE000A070002BF7D0D3E9002301202261984710
:109CF0002369002BF7D110BD982A002070B910B548
:109D0000074CA368012262703BB1D3E90023002015
:109D1000A2609847A368002BF7D110BD704700BF21
:109D2000982A002030B5012883B004D0032821D020
:109D3000B0B103B030BD294C00230DF107008DF800
:109D40000730FEF7F9FD23786BB3E3689DF8070051
:109D500001330122E360A270FEF714FE03B030BDB0
:109D60001F4B0122C3F88020BFF34F8FBFF36F8FCB
:109D700003B030BD194C00F0BDF800230DF1070011
:109D80008DF80730FEF7D8FDE368013BE360E36838
:109D90001BB9144BD3F80054C5B19DF80700FEF76A
:109DA000F1FD03B030BD10486360A3602361E36040
:109DB00000F094F802F0AEFE60B10A4A012323706D
:109DC000D2F80024002AC0D0A370BEE700F0A4F8A7
:109DD000A570E2E700F08EF8EFE700BF982A0020B8
:109DE00000E100E000000140B99C020030B585B000
:109DF000047845688DF80040D0E90240064A074BD8
:109E0000039053F82130019552F821108DF8084045
:109E10006846984705B030BDAC2A0020B42A00201F
:109E200030B585B0047845688DF80040D0E902402F
:109E3000064A074B039053F82130019552F8211040
:109E40008DF808406846984705B030BDAC2A002020
:109E5000B42A00202DE9F047DFF8748090F800E084
:109E60004B7F08F80E300D46074616460FCD88B0DA
:109E70006C460FC495E80F003D78DFF85890DFF886
:109E800058C018F8055049F82E6084E80F004CF8C7
:109E90002E00CDF810E05DB1002E0B4A694607F1A7
:109EA000040008BF324601F0C9F808B0BDE8F087E9
:109EB000002E064A694607F10C0008BF324600F042
:109EC00023FE08B0BDE8F087ED9D0200219E020050
:109ED000F42C0020B42A0020AC2A0020044A137974
:109EE00023B9012110609180184670478520704782
:109EF000BC2A0020074B1A68D20704D4C02283F87A
:109F0000002301221A604FF080430122C3F8182574
:109F1000704700BF00E100E010B40B4B0B494FF05D
:109F2000804200200224C2F8084383B018601B68F6
:109F30000193012301980B60D2F81834DB03FBD4A2
:109F400003B05DF8044B7047040100400C00004072
:109F500010B5174B1A6882B062B10021154A19601A
:109F60001B68507900934FF080410123009CC1F899
:109F7000083398B1104B1A68BAB100221A601B68F6
:109F800001934FF0804202210A4B0198C2F8081356
:109F90001B68012002B0BDE81040184711685371DA
:109FA0008847054B1A68002AE7D102B010BD00BFF0
:109FB00000010040BC2A002004010040F0B5264CFE
:109FC00094F86A3083B0002B42D14FF6FF70FF2522
:109FD0005A09012A0CBF02464FF0FF3203F01F015D
:109FE000CA40D20748BFE21803F1010348BF82F814
:109FF0003050302BECD14FF0FF334FF0FF364FF0A5
:10A00000FF370622002115482366C4E90233C4E95C
:10A010000433C4E90633C4E90833C4E90A33C4E9A4
:10A02000006702F043FF0E4BC02283F80623402254
:10A030001A600C4B0C4A002018601B680193012128
:10A040004FF00043019D84F86A10C2F8043300E029
:10A05000082003B0F0BD00BFC82A00202C2B002030
:10A0600000E100E07C61004000600040034B93F899
:10A070006A00003818BF0120704700BFC82A0020BE
:10A08000F0B4754B1D1895F93040002C61DA8C78CE
:10A09000A707C4F3400C53D41C6A013400F0D580E8
:10A0A0005C6A013400F0CA800C260A2453F824505C
:10A0B000013552D0651CB5423FD253F825700137A7
:10A0C00000F0B480A51CB54237D253F82570013793
:10A0D00000F0AC80E71CB7422FD253F8275001356F
:10A0E0003AD0271DB74228D253F82750013533D034
:10A0F000671DB74221D253F8275001352CD0A71D38
:10A10000B7421AD253F82750013525D0E71DB74280
:10A1100013D253F8275001351ED004F10807B74277
:10A120000BD253F82750013516D00934B44204D26B
:10A13000DC6A013408BF0B240FD00420F0BC704748
:10A140001C68013474D05C6801346DD00826022488
:10A15000ACE70820F0BC70473C461E1865B243F8D7
:10A16000242086F83050BCF1000F02D11C4484F842
:10A1700058008A7854071AD4D60744D41F284C783C
:10A1800087BF364E00F01F0202464FF0A04602F590
:10A19000E072A40046F82240314EC40800F0070CDB
:10A1A000375D012202FA0CF23A4332558A7812F0F6
:10A1B00002021CD0AB0003F1804303F5C0430978D1
:10A1C000D3F8104524F44F3424F44074C3F81045F8
:10A1D00002020904D3F8100501F4403102F47C5264
:10A1E0000A430243C3F810250020F0BC7047083D25
:10A1F0002B44087893F8601041EA801183F86010CE
:10A200001046F0BC70471F2887BF144A00F01F0497
:10A2100004464FF0A04202EB8402D2F8004724F03B
:10A220000204C2F80047B7E7012496E72C4694E7FA
:10A23000002485F830401A6025469AE7092685F8FB
:10A2400030605A623446354690E7082685F830601B
:10A250001A623446354689E7C82A002000030050B8
:10A260002C2B002070B4324C251883B095F9303077
:10A27000072B22DD234493F858309B09032B46D04B
:10A28000012B0CBF4FF400324FF440321F288ABF1D
:10A29000284B4FF0A04300F01F0003EB8000D0F8E4
:10A2A000003723F44033C0F80037D0F800371A43A2
:10A2B000C0F8002703B070BC7047DAB2072AF9D89B
:10A2C000980000F1804000F5C04003F14002920088
:10A2D000D0F8106592B202F1804202F5C04246F019
:10A2E0000106C0F810650020106012680192019A02
:10A2F0000029DFD095F9302054F82220002AD9D047
:10A300000D49012202FA03F3C1F80433D2E71F28F2
:10A310008ABF084A4FF0A04200F01F03D2F8102570
:10A3200098BF0346DA4002F0010202321204ADE7A0
:10A33000C82A00200003005000600040194B03446D
:10A3400093F93030072B13DD1F288ABF164B4FF0CF
:10A35000A04300F01F0003EB8000D0F8003723F487
:10A360004033C0F80037D0F80037C0F800377047E6
:10A37000DAB2072A14D810B49A0002F1804202F52A
:10A38000C0420A4CD2F81005012120F0010001FA68
:10A3900003F3C2F81005C4F808335DF8044B7047A6
:10A3A000704700BFC82A0020000300500060004032
:10A3B0001F288ABF054B4FF0A04300F01F00D3F8C1
:10A3C000103523FA00F000F0010070470003005040
:10A3D0002DE9F047002384B0CDE90233D54A116856
:10A3E000012900F040821E46D34B1A68012A00F072
:10A3F0002C82D24B1A68012A00F01982D04B1A68BD
:10A40000012A00F00682CF4B1A68012A00F0F3817E
:10A41000CD4B1A68012A00F0E081CC4B1A68012A62
:10A4200000F0CD81CA4B1A68012A00F0A181C94B06
:10A430001A68012A20D0E6B1C74F00240125A300E5
:10A4400003F18043354203F5C0434FEA45050BD085
:10A45000D3F8100557F82420D3F81015C0F30520C1
:10A46000C1F3014102B190470134082CE7D1002E1D
:10A4700017DB04B0BDE8F08700221A601B68019367
:10A480004FF0A042019BD2F82015B44B0291C2F8C4
:10A490002015D3F820250392C3F82025002E40F084
:10A4A0008B81AD4CAD4E01254FF0A04794F9600073
:10A4B000431C46D0C0F3C20204AB1A4400F00703A9
:10A4C00012F8082C05FA03F31A42C1B200F03F005B
:10A4D00037D01F2800F2258102464FF0A04909EB32
:10A4E000820304EB000ED3F800C7D3F8008728F4EA
:10A4F0004038C3F80087CCF3014C9EF93080D3F884
:10A5000000E754F82880BCF1020F0CBF4FF4403A2A
:10A510004FF4003A05FA02F24EEA0A0EC3F800E7D9
:10A52000C9F82025B8F1000F0BD08909032900F0E4
:10A53000B381BCF1020F00F0BE81BCF1030F00F04B
:10A54000A88194F96100411C46D0C0F3C20204AB5B
:10A550001A4400F0070312F8082C05FA03F31A4214
:10A56000C1B200F03F0037D01F2800F2DE80024663
:10A570004FF0A04909EB820304EB000ED3F800C7AB
:10A58000D3F8008728F44038C3F80087CCF3014C97
:10A590009EF93080D3F800E754F82880BCF1020F10
:10A5A0000CBF4FF4403A4FF4003A05FA02F24EEA7B
:10A5B0000A0EC3F800E7C9F82025B8F1000F0BD048
:10A5C0008909032900F06D81BCF1020F00F06B8155
:10A5D000BCF1030F00F0628194F96200421C46D086
:10A5E000C0F3C20204AB1A4400F0070312F8082CAF
:10A5F00005FA03F31A42C1B200F03F0037D01F281A
:10A6000000F2AE8002464FF0A04909EB820304EB52
:10A61000000ED3F800C7D3F800879EF930E028F485
:10A620004038C3F80087CCF3014CD3F800A754F8A6
:10A630002E80BCF1020F0CBF4FF4403E4FF4003EA1
:10A6400005FA02F24EEA0A0EC3F800E7C9F820251F
:10A65000B8F1000F0BD08909032900F01381BCF178
:10A66000020F00F02481BCF1030F00F0088194F97F
:10A670006300431C45D0C0F3C20204AB1A4400F08F
:10A68000070312F8082C05FA03F31A42C1B200F0CE
:10A690003F0036D01F2867D802464FF0A04909EB8B
:10A6A000820304EB000ED3F800C7D3F800879EF9AD
:10A6B00030E028F44038C3F80087CCF3014CD3F8DD
:10A6C00000A754F82E80BCF1020F0CBF4FF4403E9F
:10A6D0004FF4003E05FA02F24EEA0A0EC3F800E714
:10A6E000C9F82025B8F1000F0BD08909032900F023
:10A6F000CE80BCF1020F00F0E280BCF1030F00F04D
:10A70000C380D7F820250292C7F82025D6F8203537
:10A710000393C6F8203513437FF4C8AE04B0BDE8F8
:10A72000F08701F01F02B146D9E601F01F02B146E1
:10A7300020E700BF00610040046100400861004064
:10A740000C6100401061004014610040186100403D
:10A750001C6100407C610040C82A002000030050BA
:10A7600001F01F02B14650E701F01F02B14696E723
:10A77000554AD2F8042312067FF559AE00221A601A
:10A7800019680091196E0098012903F1600346F0E1
:10A7900080067FF450AE1A601B6801934FF0A04210
:10A7A000019BD2F82015494B0291C2F82015D3F82D
:10A7B00020250392C3F8202546F000463CE6424A95
:10A7C000D2F8042351067FF52DAE00221A601B68D3
:10A7D0000093009B46F0400624E63B4AD2F804234F
:10A7E00090067FF51AAE00221A601B680093009B4A
:10A7F00046F0200611E6344AD2F80423D4067FF549
:10A8000007AE00221A601B680093009B46F01006FA
:10A81000FEE52D4AD2F8042315077FF5F4AD00229A
:10A820001A601B680093009B46F00806EBE5264A79
:10A83000D2F8042357077FF5E1AD00221A601B68A8
:10A840000093009B46F00406D8E51F4AD2F8042383
:10A8500092077FF5CEAD00221A601B680093009B23
:10A8600046F00206C5E51849D1F8046316F0010662
:10A870003FF4BAAD136013680093009BB4E502295E
:10A880007FF4F5AEC047F2E602297FF43AAFC04745
:10A8900037E702297FF455AEC04752E602297FF41C
:10A8A0009BAEC04798E601297FF496AEF9E70129EF
:10A8B0007FF4DDAEE6E701297FF443AEECE7012942
:10A8C0007FF41FAFE3E700BF0060004000030050CB
:10A8D000014B1B68184700BF342B0020114B9842D6
:10A8E0001DD130B583B000230DF107008DF807307E
:10A8F0000D46FEF721F80C4B1C794CB99DF807006A
:10A900001D6001221A71FEF73DF8204603B030BDEC
:10A910009DF80700FEF736F8112003B030BD002087
:10A92000704700BF00200040342B0020034B9842AA
:10A9300003D1034B00221A601A71704700200040B7
:10A94000342B002030B56E4AD2F8043399058BB011
:10A9500068D5D2F82431002B64D00023C2F824310A
:10A96000D2F8243101934FF40171664B0198C2F87B
:10A97000081393F8291009B9012151606049022296
:10A980008DF81820D1F88024C1F880249869D968FE
:10A99000099200240025CDE90710C3E90645D3E953
:10A9A000001206A89047564AD2F81C31C3B1554B45
:10A9B0005869196A88426AD993F8281001F0FF0093
:10A9C000002964D1C2F81C01D2F81C11039103992B
:10A9D0009C68186A196A205C01311962C2F81C056A
:10A9E000474AD2F84431DBB10021464BC2F844114A
:10A9F000D2F8440193F829100090009809B1012180
:10AA000011609A6962B1586AD96800229A6101227C
:10AA1000CDE907108DF8182006A8D3E90012904759
:10AA20000BB030BD364AD2F804335B07BBD5D2F841
:10AA30000831002BB7D0334B996900293ED0002153
:10AA4000C2F80811D2F8081104910499D868596A1B
:10AA5000D2F8182542545A6A996901325A625A6AE0
:10AA60008A42A0D1DA69002A31D0DD685C6A1869AF
:10AA70009A6101210022D860DA615A628DF81810BB
:10AA8000CDE90754D3E9001206A890478BE71C4A8A
:10AA90000021C2F81C11D2F81C210292029A5A69B4
:10AAA000002A9DD058699A688DF81810089059614D
:10AAB000079206A8D3E90012904791E7C2F808115F
:10AAC000D2F8080105900598D2F81825C7E793F841
:10AAD000292012B90A4A01215160094A4FF4017133
:10AAE000C2F80813596ADA68089100240120079215
:10AAF0008DF81800D3E900129C6106A8904752E730
:10AB000000200040402B00202DE9F041DFF8E481D7
:10AB100006792C2303FB068382B093F82A30002B9E
:10AB200040F09E8005460C4600686D491746FFF7C9
:10AB3000D5FE002840F090802368591C19D01F2BA7
:10AB40004FF001028ABF67494FF0A04103F01F0395
:10AB500002FA03F3C1F8083523681F2B86BF03F000
:10AB60001F03604A4FF0A04203F5E073032142F84F
:10AB7000231063685A1C0BD01F2B86BF03F01F03E2
:10AB8000584A4FF0A04203F5E073002142F8231029
:10AB90002B68A269C3F82425217D637D2A680B43B5
:10ABA000C2F86C35D4E900122B68C3F81425C3F839
:10ABB0000C15237D012B5FD02C2303FB06F308EB40
:10ABC00003025760226948F803202A6897B30021DE
:10ABD000237FC2F81C11D2F81C2100922A68009F22
:10ABE000C2F84411D2F844112A6801913E4C0199EF
:10ABF000C2F804432A6842F3073100294FEA1232AF
:10AC000032DB01F1604101F561415B01DBB281F8AA
:10AC100000332A6842F30733002B4FEA123109DB75
:10AC2000324C01225B0901F01F0102FA01F144F8E4
:10AC300023102A682C2303FB068601240023042109
:10AC4000C2F80015C6E9063386F82A4086F829308E
:10AC5000736102B0BDE8F081112002B0BDE8F0815F
:10AC6000082002B0BDE8F081214902F00F025B012B
:10AC70001144DBB20B76CCE7A368591C0BD01F2B19
:10AC800086BF03F01F0317494FF0A04103F5E0739F
:10AC9000002241F82320E3685A1C1AD01F2B8ABFD8
:10ACA00010494FF0A04103F01F03012202FA03F301
:10ACB000C1F80835E3681F2B88BF03F01F0303F5B5
:10ACC000E0738CBF07494FF0A041032241F82320D5
:10ACD000E3682A68A168C2F80835C2F810156BE766
:10ACE00045A90200000300508000020000E100E0DE
:10ACF000FCEC00E0402B0020F8B53E4F04790268E0
:10AD00002C2303FB047300215B68C2F80015C3B158
:10AD10000368394AC3F80823036843F30732002A5B
:10AD20004FEA13310EDB5209344D2032012301F07A
:10AD30001F0103FA01F145F82210BFF34F8FBFF353
:10AD40006F8F0368D3F80C65D3F81455D3F8082532
:10AD5000D3F810154FF0FF3CC3F814C5C3F80CC569
:10AD600003686645C3F808C5C3F810C50CD01F2E8C
:10AD700086BF06F01F06224B4FF0A04306F5E07693
:10AD80004FF0020C43F826C06E1C0BD01F2D86BF5F
:10AD900005F01F051A4B4FF0A04305F5E07502269C
:10ADA00043F825604D1C0BD01F2986BF01F01F0101
:10ADB000134B4FF0A04301F5E071022543F82150F9
:10ADC000531C0BD01F2A86BF02F01F020C4B4FF002
:10ADD000A04302F5E072022143F822100068FFF759
:10ADE000A5FD2C2303FB0474002384F82A30636040
:10ADF000F8BD00BF402B00208402020000E100E00B
:10AE0000000300502DE9F041314E05792C2303FB5E
:10AE100005630446586984B000284CD15A61996092
:10AE2000186283F828002268C2F81C01D2F81C11AD
:10AE3000226802910121029F91602268D3F808C024
:10AE4000C2F81C01D2F81C11019101991F6A196AFC
:10AE50001CF8077001311962C2F81C755A6812B1EA
:10AE600004B0BDE8F0815F691A6A216897421BD976
:10AE7000864602E093F828200ABBD1F81C21002A5C
:10AE8000F8D0C1F81CE1D1F81C210392039AD3F841
:10AE900020801A6A1CF8088001321A62C1F81C85E9
:10AEA0001A6A9742E9D82168D1F81C31002BFBD0EF
:10AEB0000123CB6004E0112004B0BDE8F0810F2035
:10AEC0002C2303FB056500236B6104B0BDE8F08112
:10AED000402B002030B5574BD3F824218BB0002AEB
:10AEE00075D00022C3F82421D3F824210492022231
:10AEF0008DF81820049AD3F880144F4AC3F88014B0
:10AF00000991D3F83C15D3680891002400250793D4
:10AF1000C2E906451168536806A89847454BD3F81F
:10AF2000442152B10021444AC3F84411D3F84401EA
:10AF3000916903900398002938D13E4BD3F8202122
:10AF40005AB10021C3F82011D3F820210292012028
:10AF5000394A029CD8605069D8B9364BD3F8582189
:10AF6000AAB10021C3F85811D3F85801324A019010
:10AF70000198506958B1D3F84C05936808908DF842
:10AF800018105161079306A8D2E9001398470BB037
:10AF900030BDD3F84C05936808908DF818105161B6
:10AFA000079306A8D2E900139847D6E7D3F83C35B3
:10AFB000D168089300240025012307918DF81830EB
:10AFC000C2E90645D2E9001306A89847B5E7D3F8C9
:10AFD00010110029A2D0C3F81021D3F8101116487F
:10AFE000059105998469D3F83C15A14296D1C469AD
:10AFF000A4B1D3F80052846125F02005C3F80052B3
:10B00000D0E90343C26101220891C360016843682B
:10B0100007948DF8182006A898477FE7C2688461D6
:10B020000123CDE907218DF81830D0E9001306A8D7
:10B03000984773E700200040702B00202DE9F04373
:10B040000779824E07EBC70306EB830387B093F8BB
:10B050002030002B40F0B98004460D4600687C4942
:10B060009046FFF73BFC002840F0AB802B68591C52
:10B070004FEAC70919D01F2B4FF001028ABF75494B
:10B080004FF0A04103F01F0302FA03F3C1F80835A3
:10B090002B681F2B86BF03F01F036E4A4FF0A042A0
:10B0A00003F5E073032142F823106B685A1C0BD0A0
:10B0B0001F2B86BF03F01F03664A4FF0A04203F523
:10B0C000E073002142F823102368AA69C3F82425FD
:10B0D000297D6A7D23680A43C3F86C25D5E90031D0
:10B0E0002268C2F80C35C2F814152B7D012B78D0DC
:10B0F00009EB070206EB8203C3F804802B6946F8CC
:10B100002230B8F1000F4BD021682B7F524D002226
:10B11000C1F81021D1F8101101912168DDF804C0A7
:10B12000C1F82021D1F8201102912168DDF808C072
:10B13000C1F82421D1F8241103912168DDF80CC055
:10B14000C1F84421D1F8441104912168DDF810C000
:10B15000C1F85821D1F85811226805910599C2F813
:10B160000453226842F3073100294FEA123230DBE0
:10B1700001F1604101F561415B01DBB281F800330F
:10B18000226842F30733002B4FEA123109DB334DBB
:10B1900001225B0901F01F0102FA01F145F82310B9
:10B1A00022684F4406EB8706002301240821C2F8D9
:10B1B0000015C6E9063386F82040736107B0BDE884
:10B1C000F083112007B0BDE8F083082007B0BDE888
:10B1D000F083234902F00F025B011144DBB20B76CE
:10B1E000CEE7AB68591C0BD01F2B86BF03F01F03A3
:10B1F00018494FF0A04103F5E073002241F82320E5
:10B20000EB685A1C1AD01F2B8ABF12494FF0A0417D
:10B2100003F01F03012202FA03F3C1F80835EB68BB
:10B220001F2B88BF03F01F0303F5E0738CBF094990
:10B230004FF0A041032241F82320EB682268A9685F
:10B24000C2F80835C2F8101552E700BF702B002075
:10B25000D5AE0200000300501003420000E100E000
:10B26000FCEC00E02DE9F0410579564C05EBC503F7
:10B2700004EB830301465B68006882B0EE00C3B153
:10B28000514BC0F808330B6843F30732002A4FEAEA
:10B2900013330EDB5209DFF838C12032012703F0E7
:10B2A0001F0307FA03F34CF82230BFF34F8FBFF3AD
:10B2B0006F8F721904EB8202D0F80032926923F08A
:10B2C0002003C0F8003242B10023C0F84431D0F866
:10B2D000443100930123009A43600023C0F85831A1
:10B2E000D0F8583101937319012204EB8303019FB5
:10B2F000C2609A69D0F85831002BFBD01AB1D0F84F
:10B300004431002BF6D00023C0F800350B684FF015
:10B31000FF38D3F80CE5D3F814C5D3F80825D3F8D3
:10B320001075C3F80C85C3F814850B68C645C3F8BF
:10B330000885C3F810850CD0BEF11F0F86BF0EF034
:10B340001F0E22494FF0A0410EF5E07E022341F886
:10B350002E30BCF1FF3F0CD0BCF11F0F86BF0CF0AC
:10B360001F0C1A494FF0A0410CF5E07C022341F874
:10B370002C30791C0BD01F2F86BF07F01F071349F5
:10B380004FF0A04107F5E077022341F82730531C26
:10B390000BD01F2A86BF02F01F020C494FF0A041BC
:10B3A00002F5E072022341F82230FFF7BFFA35447C
:10B3B00004EB8504002384F82030636002B0BDE80C
:10B3C000F08100BF702B00201003420000030050EA
:10B3D00000E100E0F0B401F06044B4F1005F82B03D
:10B3E0002CD10579274E05EBC50406EB84040346F2
:10B3F0006069EF0000283ED16261A1601A68C2F85E
:10B400002001D2F820C11A68CDF804C0DDF804C0CC
:10B41000C2F85801D2F8582100921A68DDF800C02D
:10B42000D4F814C0C2F84415C2F848C51A680121FE
:10B430009160626832B102B0F0BC7047102002B077
:10B44000F0BC70471A6800E0C8B9D2F82011D2F8F1
:10B4500058010029F8D090B90121D1601B68D3F8B8
:10B460005821002AFBD07B1906EB830300225A6186
:10B4700002B0F0BC7047112002B0F0BC70470F2042
:10B48000F1E700BF702B002072DF704773DF704759
:10B4900076DF70477ADF70477CDF70477FDF704769
:10B4A0008FDF7047B1DF7047FCF7BABF08B503788C
:10B4B00003B108BD054B3B211888FFF7E9FF0028C1
:10B4C000F7D0BDE80840FCF7ABBF00BF4223002027
:10B4D0000B2801D0FCF7A4BF104B1148C01AC008BC
:10B4E000000410B540F003000C460E49FCF7A6F925
:10B4F0000D4B0E491888224601F05EFA30F0080222
:10B5000007D043F20202904203D043F2014290423C
:10B5100000D110BDBDE81040FCF782BF40DC020046
:10B5200068DC020048D6020042230020E82B0020FD
:10B5300008B502206AB1FEF76DFB0948094B0A49BC
:10B54000C01AC0080004BDE8084040F00300FCF742
:10B5500075B9FEF771FB0248024B0449F0E700BFE2
:10B5600068DC020040DC020064D6020078D60200EB
:10B57000FCF756BF10B50388212B82B0044630D8A3
:10B580000F2B2CD9103B112B29D8DFE803F04609EB
:10B590002862282828282828282828282828283CDD
:10B5A0003A4B3B483B49C01AC008000440F0030036
:10B5B000FCF744F90120FEF73FFB374B4FF6FF72D3
:10B5C0001A80FCF7FFFE00285DD1344B012118786A
:10B5D000FFF75CFF002853D10020FEF71BFB02B0F1
:10B5E00010BD522B3FD0562B09D1A0881321FFF755
:10B5F0004FFF0028F3D0FCF713FF02B010BD3B2B28
:10B60000F3D002B010BD00238088ADF8043001A94A
:10B61000FFF746FF0028E2D0EDE71C4B1C4820490D
:10B62000C01AC008000440F00300FCF707F901202D
:10B63000FEF7F0FA0020FEF7FFFA174BA188194831
:10B64000198001F0ADF8C0B9FCF7A6FE0028C6D0FD
:10B65000D1E7114A0023108885211A46FFF71EFF03
:10B660000028BCD0C7E70C4A0023108819461A46A8
:10B67000FFF718FF0028B2D0BDE7FCF7D1FEE3E7E3
:10B68000FCF7CEFEA8E7FCF7CBFE9EE740DC02000D
:10B6900068DC020098D602004223002040230020EC
:10B6A0008CD60200002C002000B54FF48041A7B0DA
:10B6B0000020FBF74DFF002840F0E280FBF738FF49
:10B6C0000120FEF7CBFAFDF78BF8002840F0088147
:10B6D000854840F233320121FCF7FEFD002840F09E
:10B6E000FC80FEF7CFF8002840F0F48001F086F9E6
:10B6F000002840F0EC80002317A90120179301F0E7
:10B7000059FA002840F0E08017A801F011FB00284A
:10B7100040F0D780112375488DF8203001F0CEFB22
:10B72000724982B208A8FFF7B7FE002840F0C68031
:10B730000822002117A801F0B9FB6D4B179317A839
:10B740004FF0C8731893FFF7A5FE002840F0B380B0
:10B750006848002100F016FF002840F0A980664BE1
:10B7600066481793002217A9089201F007F80028ED
:10B7700040F09B80624B6348089308A901F0B4F83D
:10B78000002840F08F805F4B5F4C9B7C8DF806302B
:10B790003C2241F22353002108A8ADF8043001F007
:10B7A00085FB022040F201633C2200218DF820003D
:10B7B00017A8ADF8223001F079FB2246012501AB34
:10B7C00052F8041BADF86C5008A81C9300F02CF93B
:10B7D000002864D1A1684D4A17A800F025F9002877
:10B7E0005AD11822002102A801F060FB0120002399
:10B7F0004FF4807540248DF8080043494448ADF863
:10B80000143002AA0393ADF81C500494FFF73CFED9
:10B8100000283ED11C22002117A801F047FB00237D
:10B820003C4A1793ADF86A308DF86C303A4B4FF4C0
:10B83000A0254FF4A034032117A8CDE91854CDE971
:10B840001C238DF8681000F023FCF8B9334B344802
:10B850003449C01AC008000440F00300FBF7EEFFB3
:10B860002B4B01211878FFF711FE60B90020FEF77D
:10B87000D1F9FBF7BBFE0028FBD1FEF719F8F8E77A
:10B88000FCF7CEFD1AE7FCF7CBFDEFE7FCF7C8FDB0
:10B89000DCE7FCF7C5FDBDE7FCF7C2FDA1E7FCF75F
:10B8A000BFFD97E7FCF7BCFD6DE7FCF7B9FD61E76D
:10B8B000FCF7B6FD53E7FCF7B3FD49E7FCF7B0FD35
:10B8C00036E7FCF7ADFD25E7FCF7AAFD1CE7FCF722
:10B8D000A7FD10E7FCF7A4FD08E7FCF7A1FD00E7D2
:10B8E000FCF79EFDF4E600BF28230020A8D6020046
:10B8F0005000A000D42B0020A9B40200002C00208E
:10B9000031B50200E82B0020302300203C2300202A
:10B9100040230020ADB4020071B5020040DC0200FB
:10B9200068DC0200B8D602006DDF704779DF70472F
:10B930007DDF704764DF70472DE9F04F87B0074621
:10B94000119D00882C880394BDF84840DDF840A084
:10B95000CDE90142002858D04FF0000988461E4624
:10B96000CB4604E03A880BF1010B93452CDAD8F86A
:10B97000002052F82B00059000220DF1130105A8BC
:10B98000FFF7D8FF044658BB9DF81320B242E9D117
:10B99000B9F1000F28D02A88019B9119994239DC0E
:10B9A00052440DF1130105A84FF00109FFF7C2FF42
:10B9B000002834D129889DF813200A442A803A8827
:10B9C0000BF1010B9345D2DBB9F1000F1DD02B8891
:10B9D000039A013B9B1A9BB2FF2B1BD80AF802303B
:10B9E000204607B0BDE8F08F2A88019B511C3244E5
:10B9F00002329A4289B20DDC029B29800AF801309A
:10BA00002A88013292B22A80CAE70024204607B071
:10BA1000BDE8F08F0C24204607B0BDE8F08F044647
:10BA2000204607B0BDE8F08F2DE9F04700231788C6
:10BA3000138090F82D3088B0144605460E46002B32
:10BA400040F00081AA78002A40F0F580E978A1B1A1
:10BA5000DA1CBA4200F2F2800222F2542388013347
:10BA60009BB201222380F254238813449BB223808B
:10BA7000F154238813449BB223806A68AAB1D91C6D
:10BA8000B94200F2DB80022192F90020F1542388B0
:10BA900001339BB20A212380F154238801339BB2E6
:10BAA0002380F2542388013323802B89002B40F01C
:10BAB000F3802B8A002B40F02B812B8B002B40F046
:10BAC00046812B6A002B44D02088821DBA4200F2A6
:10BAD000B5801A88052A40F299816FF4486802EB14
:10BAE000080189B24FF27D3C614540F28F8159884F
:10BAF000052940F28B816FF4486E8E441FFA8EFE4A
:10BB0000E64540F283814FF6FF7C624504D06145F3
:10BB100002D08A4200F27A81052232542288013210
:10BB200092B212212280B1542288013292B2228034
:10BB30001988B1543244090A51702288023292B2F3
:10BB400022805B88B35432441B0A5370238802332B
:10BB500023806B6A002B2FD09988B4F800C0881C12
:10BB60000CF102020244BA4268D8FE2866D80331BA
:10BB700006F80C102288013292B2FF212280B154C3
:10BB80002288013292B222801988B1543244090AC3
:10BB900051702088023080B220809A8862B1996802
:10BBA0000593002900F03281304401F071F9059BC2
:10BBB0009A8823881344238095F82C30002B40F07A
:10BBC000E380287800283AD02B88012B00F01E81D2
:10BBD00023889A1CBA4231D8012804D169780231ED
:10BBE00019448F422AD3023FFF1ABFB2B01806A9E8
:10BBF000ADF81870FFF79CFE08BB2B78022B00F005
:10BC00000D816978BDF818209142C0F003819742F8
:10BC1000C0F0008117460922FE2F0FD82388791C17
:10BC2000F154238801339BB22380F25423880133DB
:10BC30001F44278003E00433BB424CD90C2008B0DA
:10BC4000BDE8F087082FF9D906A8FFF76DFE002898
:10BC5000F5D123880822F254238801339BB21B229A
:10BC60002380F2542088013080B2208006223044A4
:10BC70000DF1190101F00CF923889DF81820063305
:10BC80009BB212F0FE0218BF01222380F2542388D7
:10BC900001339BB22380D5E605F10808022305F1A4
:10BCA0000C01CDE90147009640461A460591FFF781
:10BCB00043FE0028C3D1CDE90147059900964046CF
:10BCC00010230622FFF738FE0028B8D12B8A002B5C
:10BCD0003FF4F3AE1CE006A8FFF728FE0028AED123
:10BCE0002388BDF818200321F154238801339BB227
:10BCF00019212380F154238801339BB2F11823804A
:10BD0000F254130A4B70238802339BB223809DE6C2
:10BD100005F1100805F11401CDE9014700964046F0
:10BD2000022303220591FFF707FE002887D1CDE902
:10BD3000014705990096404610230722FFF7FCFDB6
:10BD400000287FF47CAF2B8B002B3FF4BAAE05F1BB
:10BD5000180805F11C01CDE9014700964046022371
:10BD600014220591FFF7E8FD00287FF468AFCDE9C4
:10BD7000014705990096404610231522FFF7DCFD88
:10BD800000283FF49EAE5AE7A96A00293ED04FF042
:10BD900000094B464FF0160A2BE02388F054238805
:10BDA00001339BB2238006F803A0238801339BB2A2
:10BDB000238031F82220F2543344120A5A7020882A
:10BDC000023080B22080B8F8042030444AB1D8F85C
:10BDD0000810D9B101F05CF8B8F8042023881344A6
:10BDE000238095F82C205FFA89F39A427FF6E9AE1A
:10BDF000A96A03EB430201EB820809F10109B8F8D3
:10BE00000430D81C0233FE2BC7D917E7072008B02F
:10BE1000BDE8F087012B08D00822FDE6BDF81830F8
:10BE20009F42F9D31F460922F6E68F42F4D30F460C
:10BE30000822F1E675DF704776DF70477ADF7047DA
:10BE40007BDF704770B51B4D2B8884B2A34282B054
:10BE500011D1194E297A327B91420ED3337C0022C4
:10BE60002A72DBB9736933B10022ADF806408DF850
:10BE7000042001A8984702B070BD184605F10A01D8
:10BE8000FFF7D8FF28B11128F5D0B369002BF1D105
:10BE9000F1E72B7A01332B7202B070BD3B212046B3
:10BEA000FFF7CAFF30F00803DCD0B369002BD9D00C
:10BEB0009847D7E7282C00200C2C0020F0B50288EA
:10BEC000122A83B003463ED015D8102A73D0112A07
:10BED0000FD16C4C828823889A420AD16068FCF7A3
:10BEE00009FD18B1684B9B6903B198474FF6FF7382
:10BEF000238003B0F0BD502AFBD1634DC188EA898D
:10BF00009142F6D1028A022AF3D15E4C82882688B9
:10BF10009642EED1123000F0A9F9002800F09C8082
:10BF2000637A002B40F09F80D5E90113277A60687F
:10BF30003246002F18BF1946FCF796FC0028D8D0CF
:10BF4000AB693BBBD5E74F4C828821889142D0D169
:10BF50004089658985421FD8A58985421CD3E0891F
:10BF60009D8940F2F313984294BF031AC31AAB425F
:10BF700012D800F2F310A8420ED3434B5B694FF482
:10BF800080722281002BB4D00122ADF806108DF80A
:10BF9000042001A89847ACE73B4D267A6068D5E9B4
:10BFA0000113002E18BF194600236372FCF75CFCD6
:10BFB0000028C5D19DE7C67B012E9AD1314C21883E
:10BFC0004FF6FF7291423FD1304D8288228003CDDF
:10BFD000C4F80A00C4F80E10598A60890025884206
:10BFE000257222D8A08988421FD3E189988A40F21D
:10BFF000F313994294BF4B1ACB1A834215D801F21E
:10C00000F311814211D3204D6672EB89002B7FF42E
:10C0100070AF6B69002B3FF46CAF0121ADF80620C7
:10C020008DF8041001A8984763E7174DEB890021AC
:10C030006172002B7FF45DAF60686968FCF714FCE7
:10C0400000283FF456AF7BE70F4B9B69002B3FF472
:10C0500050AF042098474CE76068FCF74BFC002881
:10C060003FF447AF6CE76B6900222272002B3FF46C
:10C0700040AF0122ADF806608DF8042001A8984772
:10C0800037E700BF282C00200C2C00203C2C00207F
:10C0900070B3F8B5054606460FCD164F3C460FC4A3
:10C0A000844695E80700144D3D6084E80700BCF124
:10C0B000000F17D06046FFF7C1FE90B933681868CB
:10C0C000596803C50D4B0E490E4A18464FF6FF74CA
:10C0D00040F8041F1C800021FCF7B8FB002818BFA3
:10C0E0000320F8BD2846FFF7ABFE0028EAD0F8BDD4
:10C0F0000E2070470C2C00203C2C0020282C002007
:10C10000482C002045BE02002DE9F04703888788AF
:10C11000103B98B004460A2B1CD8DFE803F0302906
:10C120001B1B1B1B1B1B1B1E0600037A46483F2BB9
:10C130004FEA1314394667D8FCF73CFE032C65D050
:10C1400042483946FCF736FE022C63D04048394657
:10C15000FCF730FE18B0BDE8F087037A002BF9D168
:10C16000437A39481B0739466BD5FCF719FEF1E7CE
:10C1700038483946FCF71EFE18B0BDE8F087364A4D
:10C180009368DB43009351686846FCF743FE009BCD
:10C190000193019B83B300263546294601A8FCF78D
:10C1A00013FE28B118AB03EB4603013623F8285CD5
:10C1B0000135142DF1D10D960DF1340CBCE80F00B2
:10C1C00002AD0FC5BCE80F000FC59CE8070085E86D
:10C1D00007008EB10DF10A08DFF888A008EB4606CB
:10C1E00038F8029F1D4D284649460435FCF7E2FD0C
:10C1F000AA45F8D1B045F3D1132F12D90420FCF78A
:10C200000FF918B0BDE8F087FCF7CAFD0F483946B2
:10C21000FCF7C6FD0E483946FCF7C2FD18B0BDE874
:10C22000F0870C483946FCF7BBFD0C483946FCF753
:10C23000B7FDE37B022B8DD109483946FCF7B0FDF1
:10C2400088E7FCF7B7FD85E7802C00207C2C0020D8
:10C25000782C0020702C0020682C00206C2C0020F2
:10C26000742C0020E42C0020AADF7047007800F036
:10C2700001007047F0B58B7891B0012B0C4609880E
:10C28000ADF80C1038BF0123054616466846032258
:10C2900000218DF80E3000F009FE637C0022013B86
:10C2A0008DF80020042B09D8DFE813F0CF00D3006D
:10C2B000D700DB00050022238DF80030A37C00228C
:10C2C000013B8DF80120042B09D8DFE813F0CE00E4
:10C2D000D200D600DA00050022238DF80130E77B7A
:10C2E000237B207C217D9DF8022043EAC70343EA9B
:10C2F000001322F01902002903F0190343EA020394
:10C3000014BF0222012262F3420309A81C22002169
:10C310008DF8023000F0CAFD637B13F0300F73D14B
:10C32000627BA37B8DF824200021142204A88DF8C1
:10C33000253000F0BBFDA368A288CDF814D003A976
:10C340000491ADF81C201BB1E2880893ADF81820C9
:10C35000A369002B36D001AF03220021384600F03C
:10C36000A5FDA2691388ADF82C305388ADF82E30A6
:10C3700051680D97137B0A91013B00218DF8041041
:10C38000042B2DD8DFE803F095999D8929002223FD
:10C390008DF80530977A137AD07A917B9DF8062034
:10C3A00043EAC70343EA001322F01902002903F00D
:10C3B000190343EA020314BF0222012262F342037B
:10C3C0008DF80630E36903B10C93334604AA09A93A
:10C3D0002846FFF749FF11B0F0BD22238DF8043045
:10C3E000537B0021013B8DF80510042BD2D801A10D
:10C3F00051F823F0A3C40200ABC402008BC40200B6
:10C4000093C402008FC3020002AF0322384600210A
:10C4100000F04CFDE37C0022013B8DF80920042B49
:10C4200007D8DFE803F0525E5A56030022238DF846
:10C4300009309DF80A300E97012262F3420311225F
:10C440008DF80A308DF808206AE711238DF8003046
:10C4500034E721238DF8003030E731238DF80030A8
:10C460002CE712238DF8003028E711238DF80130D6
:10C4700035E721238DF8013031E731238DF8013084
:10C480002DE712238DF8013029E731238DF805308F
:10C4900080E712238DF805307CE712238DF80430F5
:10C4A0009EE711238DF8053074E721238DF80530C0
:10C4B00070E711238DF8043092E721238DF80430C2
:10C4C0008EE731238DF804308AE711238DF8093087
:10C4D000AFE712238DF80930ABE731238DF809302F
:10C4E000A7E721238DF80930A3E700BF90DF70474D
:10C4F000A5DF7047B5DF704770B5002384B0002416
:10C5000060F30F0360F31F436A46204602A9CDE99A
:10C5100002340094ADF80440FFF7E8FF054610B977
:10C52000284604B070BD124B124EF61AF608FDF7FD
:10C5300039FA360446F0010603460F4922463046D2
:10C54000FBF70EFBBDF80020BDF8023052EA0301F4
:10C5500003D00A493046FBF703FBBDF80420002A4C
:10C56000DED030460649FBF72DFA284604B070BDF0
:10C5700040DC020088DC0200D0D602001CD702009A
:10C580005CD7020008B90E20704730B403464FF064
:10C5900017121B25002041F61B3419611A60C3F8DD
:10C5A00006201D7158819C8130BC70478288002A0A
:10C5B00059D110B50388242B82B00C4611D80F2B0B
:10C5C0004FD9103B142B4CD8DFE803F060744B4B71
:10C5D0004B4B4B4B4B4B4B4B4B4B4B4B4B4B4B44B2
:10C5E0004E003A2B70D0552B3BD1C388C988A2721C
:10C5F000172B38BF17238B4228BF0B4610462381C9
:10C60000FFF778FF00287ED1E37A53BB236943B359
:10C610002289ADF8042040F6772100912046694632
:10C620009847A37AA3B1E1880020FFF761FF0028B3
:10C6300062D011280CD0FDF7B5F94A4B4A490246A1
:10C640004A481B1ADB081B0443F00100FBF7BAF948
:10C6500002B010BD007A0B7B984228BF1846FFF746
:10C660004BFFA37ADEE770470B69027A4A73002B0F
:10C67000F7D000204DF67A218DF8050000918DF855
:10C680000420694620469847A37ACBE70B790B73C1
:10C69000C27B012A45D0022A33D14988E180228910
:10C6A0008A4241D3627B9A42DBD21846FFF724FFCD
:10C6B000A37AB7E74FF01711002241F61B33C4F8F5
:10C6C00006106281A381C3E74389C98822698B422E
:10C6D00028BF0B46172B38BF172323814AB1E17AB5
:10C6E00039B140F677210091ADF804306946204613
:10C6F000904700236381ABE74FF48073638102B0FE
:10C7000010BDC988CBE7FDF74DF9164B1849024615
:10C7100016481B1ADB081B0443F00100FBF752F913
:10C7200072E70988E180BAE70020FFF7E1FE18B957
:10C730000123E372237BB5E7112803D10123A37200
:10C74000237BAFE7FDF72EF9064B07490246074862
:10C750001B1ADB081B0443F00100FBF733F9237BB2
:10C76000A0E700BF88DC0200B4D7020040DC020072
:10C77000E8D70200B0DF704766DF704760B159B19B
:10C780000378DE2B0AD00B684360DE224FF6FF737E
:10C7900002704380002070470E20704708207047C9
:10C7A00038B10378DE2B02D1418000207047082089
:10C7B00070470E20704700BF19B330B5054685B0ED
:10C7C00018B10B78DE2B0C4601D005B030BD808847
:10C7D0004B889842F9D10B7A002B32D12B88112B40
:10C7E0004BD0512B12D0012BEFD12B7A012BECD156
:10C7F000012525720021FFF7BFFF002851D12072CB
:10C80000E3E77047A88863888342DED1AB79022BC7
:10C81000DBD1AA7B02F0FD01042935D0052AD4D151
:10C8200000226946C1E902224A600092ADF8042064
:10C830008DF80030FFF79EFF0028C6D06368984748
:10C84000C3E70021FFF798FF0346D8B1112818D09D
:10C85000636898472B88112B0BD0512BD2D0012B1A
:10C86000B3D12B7AAA88012BAFD160889042ACD18A
:10C87000BEE7AA8863889A42A7D14FF6FF73638008
:10C88000A3E701232372E5E7694600224FF4C07550
:10C890004A600092C1E902228DF80030ADF80450E0
:10C8A000C8E71128CAD125728FE700BFA8DF7047FB
:10C8B000AEDF704762DF70470288502A00D07047B1
:10C8C00010B44A88C488944202D05DF8044B704783
:10C8D000028A012AF9D14B69002BF6D0827C5DF8DF
:10C8E000044B8088184700BFF0B5324B04460D4614
:10C8F0000FCB2D6865618FB002AD85E80F0028462B
:10C9000004F11201FFF7D6FF08B10FB0F0BDA37C10
:10C910008DF80630224641F2235301A90120ADF8DB
:10C920000430FFF7C3FF0028EFD10146202206A8FC
:10C9300000F0BCFA9DF82530A17C8DF81A10224633
:10C9400023F01203012543F0120341F224574FF064
:10C95000011632F80A0B8DF8253006A9ADF81870CB
:10C9600007968DF829508DF82B50FFF783FC00288F
:10C97000CBD10146202206A800F098FA9DF8253078
:10C98000A77C0796224623F00A0343F00A0332F8F5
:10C99000020B8DF8295006A941F225548DF82A5032
:10C9A0008DF825308DF81A70ADF81840FFF762FC4D
:10C9B0000FB0F0BD28D8020070B50D4688B0134600
:10C9C0000446012604A8102200218DF80730ADF896
:10C9D0000E6000F06BFA6B89ADF810300DF10702B4
:10C9E0000DF10E03204604A9CDE906328DF8126040
:10C9F000FFF75EFF08B070BD10DF704770B53C4DAB
:10CA00002B7884B0002B66D13A4E3B49012302A813
:10CA10003370FCF785FF039B23B90EE0FCF78AFF18
:10CA2000039B53B1D3E9002100209047044602A89C
:10CA3000002CF3D1204604B070BD304902A8FCF7A9
:10CA40006FFF039B4BB1D3E900210020904702A860
:10CA5000FCF770FF039B002BF5D1294A00231268D5
:10CA60008DF8083002A80192FBF766FF254901A85E
:10CA7000FFF7C2FFB0FA80F304465B099DF8080097
:10CA80002B70FBF77FFF002CD4D11F4B1F491C706C
:10CA9000347091F81623EC2352091341DB071ED59D
:10CAA0001B4B9A6802B31A6842F480021A60134959
:10CAB00002A8FCF735FF039B002BBBD0D3E9002174
:10CAC0000120904702A8FCF735FF039B002BF5D10E
:10CAD000204604B070BD0824204604B070BD42F268
