:1000000000000120BD020000E5020000E702000040
:10001000E9020000EB020000ED0200000000000019
:10002000000000000000000000000000EF020000DF
:10003000F102000000000000F3020000F5020000E1
:10004000F7020000F70200004D1A0000F70200005E
:10005000F7020000F7020000F7020000F7020000BC
:10006000F7020000F7020000F7020000F7020000AC
:10007000F7020000F7020000F7020000F70200009C
:10008000F7020000F7020000F7020000F70200008C
:10009000F7020000F7020000F7020000F70200007C
:1000A000F7020000F7020000F7020000F70200006C
:1000B000F7020000F702000000000000000000004E
:1000C000F7020000F7020000F7020000F70200004C
:1000D000F7020000F7020000F70200000000000035
:1000E0000000000000000000000000000000000010
:1000F0000000000000000000000000000000000000
:1001000000000000000000000000000000000000EF
:1001100000000000000000000000000000000000DF
:1001200000000000000000000000000000000000CF
:1001300000000000000000000000000000000000BF
:1001400000000000000000000000000000000000AF
:10015000000000000000000000000000000000009F
:10016000000000000000000000000000000000008F
:10017000000000000000000000000000000000007F
:10018000000000000000000000000000000000006F
:10019000000000000000000000000000000000005F
:1001A000000000000000000000000000000000004F
:1001B000000000000000000000000000000000003F
:1001C000000000000000000000000000000000002F
:1001D000000000000000000000000000000000001F
:1001E000000000000000000000000000000000000F
:1001F00000000000000000000000000000000000FF
:1002000010B5054C237833B9044B13B10448AFF350
:1002100000800123237010BD90000020000000002A
:100220005441000008B5034B1BB103490348AFF329
:10023000008008BD00000000940000205441000030
:10024000A3F5803A704700BF174B002B08BF134B34
:100250009D46FFF7F5FF00218B460F461348144AD1
:10026000121A02F0B7FD0E4B002B00D098470D4B31
:10027000002B00D098470020002104000D000D48FD
:10028000002802D00C48AFF3008002F071FD20007E
:10029000290002F089F902F057FD00BF00000800B4
:1002A000000000000000000000000120900000207D
:1002B000B80B002000000000000000000649074ABB
:1002C000074B9B1A03DD043BC858D050FBDC02F0FF
:1002D000B3F9FFF7B9FF0000A441000000000020BF
:1002E00090000020FEE7FEE7FEE7FEE7FEE7FEE700
:1002F000FEE7FEE7FEE7FEE7064B074810B50022E3
:100300001A7001F025FA044610B9044801F004FB04
:10031000204610BD7C01002088410000E03D000027
:1003200099B10E4B0E495B1ADB0815D030B4002290
:100330000C4D02E0013293420BD035F8224084424A
:10034000F8D151F8320030BC7047054951F83000FF
:100350007047002030BC7047184670477841000055
:10036000584100008C000020094B013903EBC0000C
:1003700003290BD8DFE801F00402080604207047C7
:10038000022070474079704700797047002070471D
:10039000584100002DE9F043894CD4E901239A42E9
:1003A00085B060D00023C4F81834BFF34F8FA56820
:1003B000EAB2D31C04EB830114F82330580718D594
:1003C00066680B7803F00303012B42D0022B03D1A4
:1003D0004B88023505EB9315EAB2D4F81804D31C08
:1003E00004EB830128B9AE4239D914F823305B07F6
:1003F000E7D404EB82026B1CD2680192DBB204EBFF
:10040000830302F00302DB680293022A05F102066D
:100410002DD0012A00F08880D4F810543DB12B680B
:1004200028469B689847EB681D68002DF7D1654802
:10043000654B6649C01AC008000440F0020000F095
:10044000CBF8D4E90130C01A18BF012005B0BDE8CF
:10045000F0830B880235C3F383131D44BCE7A66009
:1004600005B0BDE8F083002005B0BDE8F083BDF81D
:1004700006305748C3F389184546502D28BF5025EC
:1004800065F38F1305F10801ADF8063001F062F94C
:1004900007460028C0D001F0A7F9002301A90822CF
:1004A000384601F0D1F9F343DBB20133B5EB830FEA
:1004B0004FEA8309F1B272D9A5EB0905033104EBC8
:1004C000810108234A463846EDB201F0BDF94149A1
:1004D0002A4609F10803384601F0B6F908F1030885
:1004E00006EB9806D4F81834002B65D1D4F81054D4
:1004F00065B1EB685A7928463946002A58D02B68EE
:100500001B689847EB681D68002DF2D1384601F052
:100510006FF9002000F0C0FCD4F8183403B9A660CD
:10052000002000F0C1FC8CE7BDF804302848C3F37C
:100530008312062A28BF0622911C62F389138900C0
:10054000ADF8043001F006F9074600283FF464AF27
:1005500001F04AF90023082201A9384601F074F994
:10056000BDF8043013F4707FBCD06FF00108A8EB25
:1005700005080825F1B203312B46042204EB810162
:10058000384601F061F9BDF80420013608EB060396
:10059000C2F383129A4205F10405EBD8A2E70331B6
:1005A0002A4604EB81010823384601F04DF995E70E
:1005B0001D68002D9DD1A9E7384601F019F940E7E3
:1005C0007C0100207041000058410000C83D00003F
:1005D00088410000880100202DE9F04F5C4C87B075
:1005E000064600200F4600F057FCD4E9015303F5FE
:1005F00080735B1B012B7DD804F21C4804F5836AD1
:1006000004F214491AE0BDF80E30C3F38913033322
:10061000090C0BEB930B4846019100F089FC019902
:10062000002839D04046C4F808B000F055FCD4E9A1
:10063000013202F58072D21A012A5CD801214046AB
:1006400000F04AFC504600F063FC484600F060FCB5
:10065000A368DAB2D11C04EB810014F8211001F078
:10066000040C490728D404EB8202591CD268039277
:10067000C9B204EB810102F00302012AC96803F147
:10068000020B30D0022ABED000214846019100F072
:100690004FFC01990028C5D14046C6E743880EEBC0
:1006A0009313DAB2D11C04EB810014F8211001F08D
:1006B000040CBCF1000FD6D0017801F00301012930
:1006C0000BD0022903F1020E02F10301E6D004EB84
:1006D0008100BCF1000FEFD1C5E702880233C2F3FD
:1006E00083121344DDE7BDF80C30C3F38313090C08
:1006F0009B4490E72B46DAB20332023305210020F7
:1007000044F82210636000F0CFFB0021114800F094
:10071000D5FB80F31000F1006B1C01F03801DBB257
:10072000EDB204EB830341F001010004033540EA1C
:10073000164641EA8727DE6044F8257023781BB10E
:10074000FFF728FE0028FBD107B0BDE8F08F00BFFF
:100750007C0100209805002030B4154DD5F8101408
:100760000446002071B10B4601E01B6853B1DB6801
:100770001A798242F9D101300A28F3D14FF0FF30C3
:1007800030BC7047E3681871D5F810344BB1DA68A3
:10079000E36812681A60D5F81034DB681C6030BC5E
:1007A0007047C5F81044E268136030BC704700BF62
:1007B0007C01002038B5084BD3F8104401251D708A
:1007C0004CB1E3685D71236820465B689847E36835
:1007D0001C68002CF5D138BD7C01002030B5C388E1
:1007E00085B004460D461BBB217A05291ED0627ACE
:1007F00082B9134AA08852F8212003920021FFF702
:100800008FFD039A0F490346284605B0BDE83040E6
:1008100000F002BCA088FFF7A7FD0B4B0B4953F873
:100820002020284600F0F8FB217AE2E705B030BD31
:10083000074A00920749084A284600F0EDFBD3E733
:10084000B83E0000183E0000943E0000143E000038
:100850000C3E0000F43D0000EC3D00002DE9F043AB
:1008600085B04FF0000C0C9C814694F80C8084F805
:100870000CC00E461746184621461D46FFF7AEFF30
:10088000062F09D8DFE807F0042E343B444F1F0041
:100890004946204600F0C0FB2B7A052B05D06B7A29
:1008A0005BB92749204600F0B7FB204600F0A8FBC3
:1008B00084F80C8005B0BDE8F083224A2249204626
:1008C00000F0AAFBEDE7D6E90413F2680393B368DE
:1008D0000291CDE900324946D6E90023204600F0D6
:1008E0009BFBD9E732684946204600F095FBD3E7E9
:1008F000D6E900234946204600F08EFBCCE7B368DA
:100900000093D6E900234946204600F085FBC3E763
:10091000D6E9023201920093D6E9002349462046E7
:1009200000F07AFBB8E7D6E90321B3680291CDE97C
:1009300000324946D6E90023204600F06DFBABE7C4
:10094000243E00000C3E0000143E0000082900D99F
:1009500070472DE9F04F9B4683B000241B7B8BF83A
:100960000C400D4606465946104690460193DFF866
:10097000D0902C4FFFF732FF05E0325D013400F0DC
:100980004BFB082C09D0A54239465846F5D84946B4
:10099000013400F041FB082CF5D12349DFF8A49085
:1009A000224C234F584600F037FB4FF0000A0DE071
:1009B000D15D11F0970F08BF2E22214658460AF14B
:1009C000010A00F029FBBAF1080F10D0554505D9EE
:1009D00016F80A207E2AEBD92E22EEE74946584621
:1009E0000AF1010A00F018FBBAF1080FEED198F8ED
:1009F0000830052B02D098F8093063B90D495846E4
:100A000000F00AFB584600F0FBFA019B8BF80C3013
:100A100003B0BDE8F08F084A0849584600F0FCFAD8
:100A2000ECE700BF283E0000343E0000383E0000E6
:100A3000BC3F0000243E00000C3E0000143E0000BD
:100A4000303E0000203E0000C20730B41AD54FF0FF
:100A5000A0430322C3F844274FF40035C3F84827C6
:100A60004FF48024C3F84C274FF40021C3F85027DB
:100A70004FF48012C3F80855C3F80845C3F80815A9
:100A8000C3F8082583070AD54FF0A0430C22C3F80A
:100A90003427C3F83827C3F83C27C3F8402730BCB5
:100AA000704700BF00B585B00346002101AA44F29B
:100AB0000100CDE90111039300F004F805B05DF8E1
:100AC00004FB00BF10B572B6FFF774FEFFF762FCBF
:100AD0000028FBD1104B114C1149E41AE4082404FE
:100AE00044F00100FFF778FD0E4B1B68DB0700D5D3
:100AF00000BE0D4944F00200FFF76EFDBFF34F8FBB
:100B00000A490B4BCA6802F4E0621343CB60BFF39F
:100B10004F8F00BFFDE700BF58410000704100004B
:100B2000CC3E0000F0ED00E0D83E000000ED00E01B
:100B30000400FA0559B142B1531E1A4005D1826032
:100B400001608380C26010467047092070470E2004
:100B5000704700BF10B48468C26803468088121BC7
:100B6000904203D204205DF8044B7047DA681C6899
:100B700002400020A154DA680132DA605DF8044BCB
:100B8000704700BF03468068DA6890420DD010B409
:100B900098689A881C6802400020A25C0A709A68D3
:100BA00001329A605DF8044B70470520704700BF22
:100BB00030B50478012C83B004D0022C2DD0ECB1D8
:100BC00003B030BD037A002B3CD04368364D197812
:100BD0002846FFF7BFFF002854D0344B01901B6814
:100BE0008DF8004068469847A968EB68AA885B1AA8
:100BF0009A4227D22E4B01221A70E1E72D492E4846
:100C0000FFF7C0FF00282ED0284B03221B688DF869
:100C100000206846984703B030BD284B284D1A780D
:100C2000C168AA5C01918DF80040B2B9254903F171
:100C30000C00012201F056F91C4B68461B689847CE
:100C400003B030BD1D4B1E4A1B781E49D35C0122E8
:100C5000A3B11D4801F0F4FBB2E71A49181D0122A7
:100C600001F0EEFBE8E71548154A0378D35CA3B121
:100C700010490122043001F07BFBA1E7134801F089
:100C800031F99DE7AA68EB689A42ADD0074B8DF821
:100C900000001B6868469847A6E7064901220C3009
:100CA00001F0ACF88CE700BF3806002034060020C5
:100CB00048060020600600204C06002000000020AE
:100CC0002C0B00205C060020040000200C000020FB
:100CD0002DE9F041334D8AB02A60002956D08A8828
:100CE00080460D46304809681C46FFF723FF10B1C7
:100CF0000AB0BDE8F081AA89A9682C48FFF71AFF5D
:100D00000028F5D12A4E98F810C02A4F0FCE02AD18
:100D10000FC596E80F0098F81160BCF1000C85E84B
:100D20000F0018BF4FF0010CD8F804300193002ECB
:100D3000D8F81430D8F808508DF8244014BF0E228B
:100D40000022D8F80C40D8F800608DF81D200893D8
:100D5000194A019B8DF81CC002A93846CDE904450B
:100D60000396029300F032FE0028C1D1D8F800307B
:100D7000124A01331070BBD0114A3B78D35C4BB19F
:100D80001049381D012201F05BFBB1E707200AB0D2
:100D9000BDE8F0810B4907F10C00012201F0A2F837
:100DA000A6E700BF34060020380600204C060020CD
:100DB000E83E000000000020B10B000048060020C3
:100DC0002C0B00205C06002070B5114D0146114827
:100DD0002E78FFF7D7FE04460EB9204670BD0E48A8
:100DE0000E4A0378D35C00222A7053B10C490430B8
:100DF000012201F025FB0028EFD0FFF753FE20462B
:100E000070BD074901220C3001F06CF8F3E700BF18
:100E10004806002038060020000000202C0B00208F
:100E20005C06002070B501461548FFF793FE0446A6
:100E300008B1204670BD134D134E2B78F35CA3B15F
:100E4000281D01F0EFFA0028F3D110490C48FFF7F4
:100E500099FE0028EDD12B780C49F35C01224BB1AF
:100E6000BDE870400A4801F083BA05F10C0001F0BA
:100E70002DF8E8E7BDE87040064800F0BFBF00BFAE
:100E80004C060020000000202C0B002060060020F3
:100E9000040000200C00002072B6024A13680133DF
:100EA0001360704764060020034A1368013B136017
:100EB00003B962B6704700BF6406002010B4034651
:100EC00053E8000F0A4643E8002494F0000FF7D1DE
:100ED0005DF8044B704700BF10B4034653E8002F81
:100EE00002EB010043E8000494F0000FF6D15DF836
:100EF000044B704710B4034653E8002FA2EB0100E7
:100F000043E8000494F0000FF6D15DF8044B7047FD
:100F100010B40346012253E8001F41EA020043E8EF
:100F2000000494F0000FF6D15DF8044B704700BF49
:100F300010B40346002253E8000F00EA020143E820
:100F4000001494F0000FF6D15DF8044B704700BF19
:100F5000B8B130B4D0E90112521A0468D2B2531EAB
:100F60002160DBB242B101680A685C1E551C0D604D
:100F70001370E3B2FF2BF6D103680020187130BC68
:100F800070470E20704700BF38B504460020FFF7B9
:100F900083FFD4E900311A688A4215D9511E1960BD
:100FA0002168A3680868258A12F8012CE4681B1AD6
:100FB0000879DBB2984205FB024400D20B71002095
:100FC000FFF772FF204638BD00240020FFF76CFFBA
:100FD000204638BD38B5054600200C46FFF75CFFBB
:100FE0002A681368591C1160E9682A8A641AB4FBDC
:100FF000F2F41C70BDE838400020FFF755BF00BF79
:10100000826842B110B50446436901680069984797
:101010000023A36010BD70470EB400B582B00399E1
:1010200021B104AB01AA019300F0ACF802B05DF865
:1010300004EB03B0704700BF2DE9F04F164683B0B4
:10104000B142DDE90C920F4605469A46C0F0958004
:101050000B464FF00108B3FBF6F39E4208F101087E
:10106000F9D9D04538BFD04612F00103019302D11F
:10107000B9F1000F5ED1AA68012403E00AF1FF3A3A
:1010800006FB04F4BAF1010FF8D8B7FBF4F39E4263
:10109000F6D9DFF8ECA007E0B442B4FBF6F31AD3BC
:1010A000AA681C46B7FBF3F31AF803B0BBF10A0FAA
:1010B00004FB137728D02B68511CA96003F802B0F9
:1010C000D5E901329A42E7D32846FFF799FFB4FBEE
:1010D000F6F3B442E4D2019B9BB1B9F1000F10D0FA
:1010E0002024C84509F1FF390BD2AB682A68591C86
:1010F000A960D454D5E901329A4214D2B9F1000F53
:10110000EFD103B0BDE8F08F511C2B68A9604FF000
:101110000D019954D5E901329A42CCD32846FFF704
:101120006FFFAA68C7E72846FFF76AFFB9F1000F0B
:10113000D7D1E6E793071AD42024AA68C84502F15C
:10114000010199D22B68A9609C54D5E901329A42D9
:1011500009F1FF3903D2B9F1000FEFD18CE728462E
:10116000FFF74EFFAA68B9F1000FE7D184E7BAF1A3
:10117000000F0CBF30242024DFE74FF0010870E798
:10118000083F0000002900F054822DE9F04FDFF8FD
:10119000B8950C7885B0064690460D464FF00D0A7E
:1011A00010E00A2CB36800F0AD803268591CB160C1
:1011B000D454D6E901329A4280F0A0802C78002CD9
:1011C00000F087800135002C00F08380252CE8D1C9
:1011D000294600270D4611F8012B2D2A00F08880A2
:1011E000302A00F088802B2A7AD02A2A00F09980B1
:1011F000A2F13003092B4FF000040BD804EB840458
:1012000002EB440415F8012FA2F13003092BA4F1DD
:101210003004F3D92E2A00F09080002301E015F865
:10122000012F02F0FB016829F9D0252A00F077810F
:10123000583AD1B2202947D8202A45D8DFE812F001
:10124000350144004400440044004400440044008C
:10125000440044004400430113014400440044009E
:10126000440013014400440044004400440044008E
:10127000D20044004400A200440094004400440012
:10128000350101209842024638BF1A460292002CCE
:1012900040F05081B80740F16E81002B40F04E8243
:1012A0001C46BBF1000FC0F20A827A0700F11A82D5
:1012B00007F00302022A00F0EA81CDE9004759460F
:1012C0000A223046FFF7B8FE01352C78002C7FF457
:1012D00079AF337B002B40F01C8105B0BDE8F08F67
:1012E0000D4611F8012B2D2A47F004077FF478AF43
:1012F00047F001076EE747F002076BE73046FFF75C
:101300007FFE5BE73268591CB16002F803A0D6E9A2
:1013100001239342FFF449AF3046FFF771FEB368F3
:1013200043E7D8F800301A1DC8F800206A781C6816
:101330002E2A05F101057FF470AF6A78A2F130031F
:10134000092B05F101054FF000033FF66AAF03EBEF
:10135000830302EB430315F8012FA2F130010929A1
:10136000A3F13003F3D95CE7D8F80020111DC8F8C9
:10137000001011683046CDE900470A22FFF75CFEF5
:101380000135A2E7D8F800301A1DC8F8002017F080
:101390000107D3F800B040F0F080BBF1000F03D09C
:1013A000584601F03FFD0746BC4240F24381002C05
:1013B00000F04081202205E0BC4200F03B81002C7F
:1013C00000F03881B1683368481CB0605A54D6E9DF
:1013D0000130984204F1FF34EED33046FFF710FE9F
:1013E0002022E9E7D8F80020131DC8F80030B368C0
:1013F00031681768581C3022B060CA54D6E90123FE
:10140000934280F0EF803268581C7821B060D1544C
:10141000D6E901329A4280F0E0800F2F03D93B4693
:101420001B090F2BFCD84FF0805406E00F2C4FEA1D
:1014300014137FF649AFB2681C46B7FBF4F319F8F2
:1014400003B0BBF10A0F04FB137754D03368511C6F
:10145000B16003F802B0D6E901329A42E6D33046D1
:10146000FFF7CEFDE2E7D8F80020111DC8F8001004
:10147000D2F800B08BEAEB72A2EBEB72092A7FF78D
:1014800000AFDFF8C8C2012011466329ACFB02E2BD
:1014900000F101004FEAD202F6DC9842024638BF62
:1014A0001A460292002C45D1F4E6D8F80020111D0E
:1014B000C8F8001011683046CDE900471022FFF748
:1014C000BBFD013501E7D8F800301A1DC8F800202F
:1014D0001C78B3680A2C00F011813268591CB16085
:1014E000D454D6E901329A42FFF4EEAE3046FFF70B
:1014F00087FD0135E9E63368511CB16003F802A0AD
:10150000D6E901329A42A1D33046FFF779FDB2689D
:101510009CE7304605B0BDE8F04FFFF771BDB368FA
:101520003168581CB060CA54D6E901329A42DDD203
:101530000135CAE6BBF1000F59DB7A0757D4B8076B
:1015400002D5002B3FF4ADAEF9073FF5AAAE94B13A
:1015500020220299A142BFF4A4AEB168481CB06039
:1015600030684254D6E90101814204F1FF3480F031
:10157000D480002CEDD1002493E69BF80030002BA2
:1015800000F0E080B0685F46CBF101020A2B02EB6D
:10159000070B3CD0411CB16031680B54D6E90130D7
:1015A000984226D217F8013F002BEFD15C457FF619
:1015B0008BAE202702E05C453FF486AEB26833680C
:1015C000511CB1609F54D6E901329A4204F1FF34B4
:1015D000F1D33046FFF714FDEDE73046FFF710FD7D
:1015E000B2681AE73046FFF70BFDB3680BE7013C22
:1015F000A5E730460292FFF703FD17F8013F002BE5
:10160000D4D0029AB0680A2B02EB070BC2D1411C5E
:10161000B160316801F800A0D6E901108842B9D361
:101620003046CDE90232FFF7EBFCDDE90232B0686B
:10163000B0E770479BF80040002C3FF445AE0A2C01
:10164000B0680ED03368421CB2601C54D6E9013039
:10165000984214D21BF8014F002C3FF435AE0A2CEF
:10166000F0D13368421CB26003F800A0D6E9013023
:101670009842E7D33046FFF7C3FCB068E2E7304654
:10168000FFF7BEFC1BF8014F002CD8D11CE6002B45
:101690007FF413AE8CB130220299A142BFF40DAE9B
:1016A000B168481CB06030684254D6E901018142FB
:1016B00004F1FF343BD2002CEED10024FDE5B168EB
:1016C0004A1CB26032682D205054D6E90121914263
:1016D000CBF1000BFFF4ECAD30460393FFF790FC29
:1016E000039BE5E5B1684A1CB26032682B20505478
:1016F000D6E901219142FFF4DBADEDE73268591CD8
:10170000B16002F803A0D6E901239342FFF4E5AEED
:101710003046FFF775FCB368DFE630460393FFF70A
:101720006FFC039B2022002C7FF413AF23E730468D
:101730000393FFF765FC039B3022BCE7F9073FF5F5
:10174000B0AD18E79B4631E7083F0000CDCCCCCCCC
:10175000FFF7FEBB2DE9F041058A0331043D4E1928
:101760008046B6FBF5F6FFF70FFCA0B3F6B24FF4D8
:101770008073013E0446C580C0F8008083802BD072
:101780000346002508E06279AE4202F1010262716F
:101790003860C0F800801FD040461F46FFF7F4FBBA
:1017A000013503460028EED16779791E17D022460D
:1017B000013399421268FBD1D2F800805FB12668EC
:1017C000002501E034463668214601354046FFF7E2
:1017D00001FCAF42F6D800242046BDE8F081206825
:1017E0002146FFF7F7FBF6E704300121FFF774BB52
:1017F0002DE9F041012104460430FFF77BFB10F096
:10180000FF0301D0BDE8F0816779791E16D022462A
:10181000013399421268FBD1D2F80080002FF1D039
:101820002668002501E034463668214601354046E9
:10183000FFF7D0FBAF42F6D8BDE8F0812068214623
:10184000BDE8F041FFF7C6BB2DE9F8430546C68861
:101850004079144606FB00F2043A04EB030C1F1D0A
:10186000624538BFD41ABE428846B7FBF6F106FB84
:10187000117002D801392D68FCD1371AA74228BF50
:1018800027469CB14FF000090430E41B28443A4637
:1018900008EB090101F090FAA642B9442D683746D9
:1018A0004FF0000028BF2746002CEDD1BDE8F8839B
:1018B0002DE9F8430546C6884079144606FB00F238
:1018C000043A04EB030C1F1D624538BFD41ABE4214
:1018D0008846B7FBF6F106FB117002D801392D6876
:1018E000FCD1371AA74228BF27469CB14FF0000908
:1018F00004302918E41B3A4608EB090001F05CFAB1
:10190000A642B9442D6837464FF0000028BF27464D
:10191000002CEDD1BDE8F8838268002393608268D3
:101920001361826853618268D36082685360826801
:101930001360704770B5161E07DD0C468D1914F83C
:10194000010BFFF76FFAA542F9D1304670BD00BF19
:1019500010B50C462046FFF737FA0528FAD00120CB
:1019600010BD00BF30B585B0047845688DF80040E3
:10197000D0E90240064A074B039053F82130019505
:1019800052F821108DF808406846984705B030BDE0
:10199000680600206C06002030B585B004784568E4
:1019A0008DF80040D0E90240064A074B039053F8F7
:1019B0002130019552F821108DF80840684698476B
:1019C00005B030BD680600206C060020F0B51A4B4B
:1019D00090F800C0194C1A4D91F81DE044F82C20E5
:1019E0000746086945F82C0003F80CE00C4616463B
:1019F0000FCC89B06D460FC594E80F0085E80F0045
:101A0000CDF810C0BEF1000F0AD0002E0D4A694675
:101A100007F1040008BF324600F0BCFB09B0F0BD7E
:101A2000002E094A694607F10C0008BF324600F053
:101A300013F909B0F0BD00BF2C0B00206C0600208C
:101A4000680600206519000099190000014B1B6809
:101A5000184700BF7006002038B50C4B984213D1D0
:101A600000200D46FFF718FA094B1C7924B100201D
:101A7000FFF71AFA112038BD012220461D601A71A5
:101A8000FFF712FA204638BD002038BD0020004084
:101A90007006002030B56E4AD2F8043399058BB039
:101AA00068D5D2F82431002B64D00023C2F8243149
:101AB000D2F8243101934FF40171664B0198C2F8BA
:101AC000081393F8291009B90121516060490222D5
:101AD0008DF81820D1F88024C1F880249869D9683D
:101AE000099200240025CDE90710C3E90645D3E992
:101AF000001206A89047564AD2F81C31C3B1554B84
:101B00005869196A88426AD993F8281001F0FF00D1
:101B1000002964D1C2F81C01D2F81C110391039969
:101B20009C68186A196A205C01311962C2F81C05A8
:101B3000474AD2F84431DBB10021464BC2F8441188
:101B4000D2F8440193F829100090009809B10121BE
:101B500011609A6962B1586AD96800229A610122BB
:101B6000CDE907108DF8182006A8D3E90012904798
:101B70000BB030BD364AD2F804335B07BBD5D2F880
:101B80000831002BB7D0334B996900293ED0002192
:101B9000C2F80811D2F8081104910499D868596A5A
:101BA000D2F8182542545A6A996901325A625A6A1F
:101BB0008A42A0D1DA69002A31D0DD685C6A1869EE
:101BC0009A6101210022D860DA615A628DF81810FA
:101BD000CDE90754D3E9001206A890478BE71C4AC9
:101BE0000021C2F81C11D2F81C210292029A5A69F3
:101BF000002A9DD058699A688DF81810089059618C
:101C0000079206A8D3E90012904791E7C2F808119D
:101C1000D2F8080105900598D2F81825C7E793F87F
:101C2000292012B90A4A01215160094A4FF4017171
:101C3000C2F80813596ADA68089100240120079253
:101C40008DF81800D3E900129C6106A8904752E76E
:101C500000200040780600202DE9F041624F06790F
:101C60002C2303FB067382B093F82A30002B40F03C
:101C70008D8005460C4600685C499046FFF7ECFEF7
:101C800000287FD12368591C0CD001224FF0A041BD
:101C900002FA03F3C1F80835236803F5E073032261
:101CA00041F8232063685A1C06D003F5E0734FF017
:101CB000A042002142F823102B68A269C3F8242512
:101CC000217D637D2A680B43C2F86C35D4E900128C
:101CD0002B68C3F81425C3F80C15237D012B61D0A4
:101CE0002C2303FB06F3FA18C2F804802269FA5089
:101CF0002A68B8F1000F33D00021237FC2F81C11ED
:101D0000D2F81C2100922A68DDF800C0C2F8441104
:101D1000D2F844112A680191354C0199C2F8044364
:101D20002A6842F3073100294FEA123232DB01F10F
:101D3000604101F561415B01DBB281F800332A6843
:101D400042F30733002B4FEA123109DB294C012201
:101D50005B0901F01F0102FA01F144F823102A681F
:101D60002C2303FB0676012400230421C2F800156E
:101D7000C6E9063386F82A4086F82930736102B036
:101D8000BDE8F081112002B0BDE8F081082002B06A
:101D9000BDE8F081184902F00F025B011144DBB28B
:101DA0000B76CCE7A368591C06D003F5E0734FF01F
:101DB000A042002142F82310E3685A1C0DD00122F2
:101DC0004FF0A04102FA03F3C1F80835E36803F5C8
:101DD000E073032241F82320E3682A68A168C2F86F
:101DE0000835C2F810157BE778060020951A000028
:101DF0008000020000E100E0FCEC00E02DE9F04191
:101E0000314E05792C2303FB05630446586984B0E1
:101E100000284CD15A619960186283F82800226822
:101E2000C2F81C01D2F81C11226802910121029F04
:101E300091602268D3F808C0C2F81C01D2F81C11C6
:101E4000019101991F6A196A1CF807700131196222
:101E5000C2F81C755A6812B104B0BDE8F0815F6920
:101E60001A6A216897421BD9864602E093F8282017
:101E70000ABBD1F81C21002AF8D0C1F81CE1D1F826
:101E80001C210392039AD3F820801A6A1CF8088058
:101E900001321A62C1F81C851A6A9742E9D8216892
:101EA000D1F81C31002BFBD00123CB6004E01120C2
:101EB00004B0BDE8F0810F202C2303FB056500234F
:101EC0006B6104B0BDE8F081780600200379044A14
:101ED0002C2101FB03235869003818BF01207047EB
:101EE00078060020F0B4504F06792C2303FB0673CC
:101EF00086B05D68044625B103684FF40170C3F8ED
:101F000008032C2303FB0673986990B1D869002855
:101F10007CD11961DA612C2303FB06735A683AB34A
:101F200023684FF40172C3F80423002006B0F0BC0C
:101F3000704793F829509A61D9605862D861002D92
:101F4000E9D12368C3F82451D3F8242123680192EE
:101F5000019AC3F80851D3F808212368029201229C
:101F600002991A602C2303FB06735A68002AD7D102
:101F70002168C1F84421D1F844210392039A2268D0
:101F8000D2F82411D2F80851D2F8440155B90028EA
:101F900033D10029F4D02C2303FB06760023B36150
:101FA0000320C3E70029F6D148BB9969C2F80801AC
:101FB00081B1D2F8081104910499DD68596AD2F808
:101FC00018256A545A6A996901325A625A6A9142CA
:101FD000D5D806E0D2F8081105910599D2F8182550
:101FE0005B6A2C2303FB0676002296F82930B26147
:101FF000A3B1236801221A6098E70029CBD12C23D2
:1020000003FB06760023B3610F208FE755B12368E9
:102010004FF40172C3F80423112087E723680122DB
:102020005A6083E7112081E77806002030B5574BCE
:10203000D3F824218BB0002A75D00022C3F82421C4
:10204000D3F82421049202228DF81820049AD3F8A0
:1020500080144F4AC3F880140991D3F83C15D36813
:102060000891002400250793C2E9064511685368CA
:1020700006A89847454BD3F8442152B10021444A61
:10208000C3F84411D3F844019169039003980029DF
:1020900038D13E4BD3F820215AB10021C3F820118A
:1020A000D3F8202102920120394A029CD86050695D
:1020B000D8B9364BD3F85821AAB10021C3F858112A
:1020C000D3F85801324A01900198506958B1D3F8B9
:1020D0004C05936808908DF818105161079306A875
:1020E000D2E9001398470BB030BDD3F84C05936884
:1020F00008908DF818105161079306A8D2E90013D3
:102100009847D6E7D3F83C35D168089300240025DA
:10211000012307918DF81830C2E90645D2E9001372
:1021200006A89847B5E7D3F810110029A2D0C3F844
:102130001021D3F810111648059105998469D3F838
:102140003C15A14296D1C469A4B1D3F80052846170
:1021500025F02005C3F80052D0E90343C2610122F3
:102160000891C3600168436807948DF8182006A899
:1021700098477FE7C26884610123CDE907218DF884
:102180001830D0E9001306A8984773E700200040F4
:10219000A80600202DE9F0430779704E07EBC7032E
:1021A00006EB830387B093F82030002B40F0A78024
:1021B00004460D4600686A499146FFF74DFC002829
:1021C00040F099802B68591C4FEAC7080CD00122B7
:1021D0004FF0A04102FA03F3C1F808352B6803F56C
:1021E000E073032241F823206B685A1C06D003F5E4
:1021F000E0734FF0A042002142F823102368A96940
:10220000C3F82415297D6A7D23680A43C3F86C2529
:10221000D5E900312268C2F80C35C2F814152B7DBF
:10222000012B78D008EB070206EB8203C3F8049079
:102230002B6946F82230B9F1000F4BD021682B7F73
:10224000484D0022C1F81021D1F8101101912168E8
:10225000DDF804C0C1F82021D1F8201102912168D5
:10226000DDF808C0C1F82421D1F8241103912168B8
:10227000DDF80CC0C1F84421D1F844110491216863
:10228000DDF810C0C1F85821D1F858112268059125
:102290000599C2F80453226842F3073100294FEA36
:1022A000123230DB01F1604101F561415B01DBB2CB
:1022B00081F80033226842F30733002B4FEA1231D2
:1022C00009DB294D01225B0901F01F0102FA01F12E
:1022D00045F823102268474406EB870600230124B3
:1022E0000821C2F80015C6E9063386F8204073615C
:1022F00007B0BDE8F083112007B0BDE8F0830820E7
:1023000007B0BDE8F083194902F00F025B011144E8
:10231000DBB20B76CEE7AB68591C06D003F5E07351
:102320004FF0A042002142F82310EB685A1C0DD058
:1023300001224FF0A04102FA03F3C1F80835EB681F
:1023400003F5E073032241F82320EB682268A968B3
:10235000C2F80835C2F8101564E700BFA8060020CF
:102360002D2000001003420000E100E0FCEC00E042
:10237000F0B401F06044B4F1005F82B02CD1057973
:10238000274E05EBC50406EB840403466069EF00A5
:1023900000283ED16261A1601A68C2F82001D2F81B
:1023A00020C11A68CDF804C0DDF804C0C2F8580195
:1023B000D2F8582100921A68DDF800C0D4F814C091
:1023C000C2F84415C2F848C51A68012191606268D4
:1023D00032B102B0F0BC7047102002B0F0BC7047C0
:1023E0001A6800E0C8B9D2F82011D2F858010029C3
:1023F000F8D090B90121D1601B68D3F85821002A88
:10240000FBD07B1906EB830300225A6102B0F0BCBB
:102410007047112002B0F0BC70470F20F1E700BFF9
:10242000A80600200379054A03EBC30302EB8303EC
:102430005869003818BF0120704700BFA806002067
:1024400001F06043B3F1005F5ED1F0B40479474D11
:1024500004EBC40605EB860682B07668E30026B17D
:1024600007684FF4047CC7F808C3234405EB8303D3
:102470009C694CBB9A61DC61D9600368C3F8104168
:10248000D3F8106103680196019EC3F84441D3F864
:10249000444103680094009CC3F83415C3F8382500
:1024A000036801221A60047904EBC40305EB83037B
:1024B000E6005B6853B303684FF40472C3F8042367
:1024C000002002B0F0BC7047DC69002C37D11961E4
:1024D000DA610368C3F81041D3F81061036801960C
:1024E000019EC3F84441D3F8444103680094009C22
:1024F000C3F83415C3F838250268D2F8003243F027
:102500002003C2F80032CEE710207047036801E0D4
:10251000E9B910BBD3F81021D3F84411D3F8240142
:10252000002AF5D0344400284FF0000305EB840561
:1025300018BF0320994218BF0F20AB61C1E796B1C5
:1025400003684FF40472C3F804231120B9E734443C
:1025500005EB84050F20AA61B3E7344405EB84053D
:102560000320A961ADE71120ABE700BFA80600205A
:102570000378022B04D0012B02D0032B03D0704729
:102580004068FEF78FBA0548054B0649C01AC008D7
:10259000000440F00300FEF71FB800BF70410000C8
:1025A000584100002C3F000070B500218AB0084659
:1025B000FDF7A2FE70BB00F0A9FA194D0120FEF74D
:1025C00043FA184B00930FCD04AC0FC495E80300F9
:1025D00084E80300144C154A4FF4807507236946BC
:1025E00004A8CDE902450195FEF772FBA8B9104D8C
:1025F000104E45F001056920FEF714FC01463046F7
:1026000000F0F0FB4FF47A744FF47A40A847013C95
:10261000FAD1F0E7FEF746FACDE7FEF743FAE6E730
:10262000443F0000CC060020CC07002071250000AC
:10263000603F0000383F000030B4A54B1B68591CB8
:1026400004BFA44B1B78062B05D1A34BA34A1B68E0
:10265000C3F3042313609F4B1B78062B00F0F88014
:102660009B4B1B685A1C04BF9A4B1B78062B05D149
:102670009B4B9C4A1B68C3F342331360954B1B78FA
:10268000062B00F0D280924B1B685D1C04BF914B5F
:102690001B78062B08D14FF080430022C3F80C2191
:1026A000C3F81021C3F838258A4B1B78062B00F09D
:1026B0009C80874B1A68541C1FD08B4B062A1B68C2
:1026C00023D08A4AD2F8883043F47003C2F88830A5
:1026D000BFF34F8FBFF36F8F4FF01023D3F800225B
:1026E000002AC0F22F81D3F80432002BC0F22A81D5
:1026F0007F4B804A1A6030BC704776497E4B097820
:102700001B680629DDD1C3F30313033B032B40F2FF
:10271000B6804FF08052794BD2F80414C3F82015DC
:10272000D2F80814C3F82415D2F80C14C3F82815ED
:10273000D2F81014C3F82C15D2F81414C3F83015BD
:10274000D2F81814C3F83415D2F81C14C3F8401585
:10275000D2F82014C3F84415D2F82414C3F848154D
:10276000D2F82814C3F84C15D2F82C14C3F850151D
:10277000D2F83014C3F85415D2F83414C3F86015E5
:10278000D2F83814C3F86415D2F83C14C3F86815AD
:10279000D2F840144E48C3F86C15D2F844140268BD
:1027A000C3F87015501C00F08C80062A89D1544B58
:1027B000474A1B685349126803F04F030B60511CD2
:1027C00062D0062A7FF47DAF4FF08043D3F8003407
:1027D000DA0765D4444B1B68033B032B49D94A4AAB
:1027E000136843F4806313606BE7434B1B68C3F3C8
:1027F0000313033B032B3FF65CAF444AD25C12B198
:10280000434A03211160434AD35C002B3FF451AF8C
:10281000414A424C4249434B0520106001250020AB
:102820003F22256008601A6043E7334B1B68C3F3FF
:102830000313033B032B3FF626AF3B4AD35C002B2D
:102840003FF421AF394AD36823F08073D3601AE78D
:10285000294B1B68C3F30313033B032B3FF600AF65
:10286000334AD35C002B3FF4FBAE324B324A1A6042
:10287000F6E6324AD35C002B3FF423AFAFE7304992
:10288000CB5C002B8ED044E7124B1B78062B7FF4D9
:1028900018AF4FF08043D3F80034DB077FF511AF5A
:1028A0000B4B1B684FF080426FF00101062BC2F802
:1028B00000147FF406AF0C4B1B68033B032B8ED830
:1028C000D7E7044B1B78062B3FF471AFF9E600BF46
:1028D00030010010E00F00F02403001040350140EB
:1028E000440200103C0500403401001000ED00E0FF
:1028F000140000200090D003E80F00F000C000405A
:1029000058020010E40E00403C170040703F0000E9
:10291000A0050040703F000010560040885600405F
:102920001856004014560040703F0000F0ED00E0E3
:10293000703F000074C007400DF0ADBA6C3F00005E
:10294000683F0000184A0123C2F80435D2F8003469
:10295000002BFBD04FF010231521134AC3F80012AF
:10296000D2F80034002BFBD04FF0102315210E4A73
:10297000C3F80412D2F80034002BFBD000230A491C
:10298000C2F80435D1F80034002BFBD0BFF34F8FD1
:102990000649074BCA6802F4E0621343CB60BFF3F9
:1029A0004F8F00BFFDE700BF00E0014000ED00E0F9
:1029B0000400FA05704700BF00B583B0044B0093D4
:1029C000044A402300F036F803B05DF804FB00BF72
:1029D000D9290000D008002002B32DE9F843114B9B
:1029E000114E8846144643F001090327002522466C
:1029F00008EB0501002000F099F803461D444FF450
:102A00007A40E41A23B9337833B1C847013F06D07E
:102A100001233370002CEAD1BDE8F883704737708A
:102A2000BDE8F883803F0000CC080020704700BF5D
:102A300000F05AB9F0B595B000241D460E46084680
:102A40001746FEF7D1FE304623460822099505A910
:102A50001A9D08970D950A948DF82C400C94FEF75A
:102A600027FF9DF814308DF81140DDE9061003F0C2
:102A70000302012ACDE9020128D0022A04D03046FF
:102A8000FEF7B6FE15B0F0BDBDF81650C3F3C20395
:102A90008DF81030C5F389150827082D2C4628BF5E
:102AA00008243B4622460EA93046FEF701FF2D1BA7
:102AB000214608AB02AA0EA82744FDF747FF002DC8
:102AC000EBD13046FEF794FE15B0F0BDBDF81470A2
:102AD000059DC7F38312C3F3C2040EA930469200CA
:102AE00008238DF81040C7F38317FEF7E1FEC5F306
:102AF000952508AB3A4628460EA9009302ABFDF790
:102B0000ADFE3046FEF774FE15B0F0BD08B5FFF718
:102B10008FFF04480421FDF71FFE034B01225A7169
:102B200008BD00BF78410000180000202DE9F04FDB
:102B3000DFF8B09100EB400509EBC50583B0EE6A04
:102B4000012E07468A4690464FEA400407D0022EDF
:102B50004FD056B30026304603B0BDE8F08FAE6AC2
:102B6000D5F824B05E457DD9013EA6EB0B062D6A53
:102B7000464528BF4646A5EB0B0296427ED27B1CFB
:102B800003EB430309EBC3033246586851465844EC
:102B900000F012F9274409EBC70906EB0B02304697
:102BA000C9F8242003B0BDE8F08FAB6AD5F824B093
:102BB0005B459CBF2A6A9B18013BA3EB0B0398451E
:102BC000C9D8044409EBC4040137256AA5EB0B06F8
:102BD00007EB4707B04509EBC7096FD2D9F80400E6
:102BE0004246584400F0E8F808EB0B03636246469F
:102BF000B1E7013707EB47076C6AFF000026AB6AB5
:102C0000A34203F1FF3222D9131B2A6A434509EB81
:102C10000701A2EB040B28BF43469B45486828BF29
:102C20009B46204451465A4600F0C6F82B6A5C4445
:102C30009C425E44A8EB0B08DA440DD06C62B8F1FC
:102C4000000F88D0AB6AA34203F1FF32DCD82A6AB6
:102C50001344013B1B1BD9E700246C62B8F1000F41
:102C6000CDD178E72D6A2E44013EA6EB0B064645F2
:102C700028BF4646A5EB0B02964280D307F1010818
:102C800008EB480809EBC8085146D8F8040001923F
:102C9000584400F091F8751B019AD8F804005D447F
:102CA0000AEB02012A4600F087F8274409EBC7091E
:102CB0003046C9F8245003B0BDE8F08FD9F80400BD
:102CC0005844C3443246ABEB050500F075F80AEBF7
:102CD0000601D9F804002A4600F06EF846466562FF
:102CE00039E700BF300B002038B5114C114B1248AA
:102CF000E36110254FF40073104A11492362E06428
:102D000000232565E01D0225A3626362E362A365DB
:102D10006365E365A261A264C4E9045500F07AF832
:102D20000849204600F076F82023A37138BD00BF83
:102D3000300B00202009002010090020A43F0000D3
:102D4000B03F0000B43F000008B5074B044613B184
:102D50000021AFF30080054B1868836A03B19847E0
:102D6000204601F023F800BF00000000BC40000036
:102D700070B50D4D0D4C641BA4100026A64209D160
:102D80000B4D0C4C01F014F8641BA4100026A64255
:102D900005D170BD55F8043B98470136EEE755F86C
:102DA000043B98470136F2E78400002084000020AD
:102DB00084000020880000200A44914200F1FF3383
:102DC00000D1704710B511F8014B03F8014F914243
:102DD000F9D110BD02440346934200D1704703F875
:102DE000011BF9E70FB40A4B13B51C6824B1A369A2
:102DF00013B9204600F076F805AB049AA168019358
:102E0000204600F093F902B0BDE8104004B07047CE
:102E100020000020034611F8012B03F8012B002AA3
:102E2000F9D17047034613F8012B002AFBD1181A79
:102E300001387047002310B50446C0E90033C0E9EB
:102E40000433836081814366C2818361194608220D
:102E50005C30FFF7BFFF054B6362054BA362054B78
:102E6000E362054B2462236310BD00BFD53600002A
:102E7000F73600002F37000053370000014900F0FB
:102E8000AFB800BF2D3A000070B54A1E6825554303
:102E90000E4605F1740100F0C5F8044640B100216A
:102EA000C0E900160C30A06005F16802FFF792FF40
:102EB000204670BD014800F0B3B800BFB00B002041
:102EC000014800F0AEB800BFB00B0020014800F090
:102ED000A7B800BFAB0B0020014800F0A2B800BFAC
:102EE000AB0B002010B50446FFF7F0FFA3691BB140
:102EF000BDE81040FFF7F0BFC4E912332365134B60
:102F0000134A1B68A262A34204BF0123A3612046A7
:102F100000F020F86060204600F01CF8A060204619
:102F200000F018F80022E06004216068FFF782FFDB
:102F3000A06801220921FFF77DFFE068022212212B
:102F4000FFF778FF0123A361D2E700BFBC40000078
:102F50007D2E0000F8B50746FFF7ACFF1E4B1E683C
:102F6000B36913B93046FFF7BDFF4836D6E90134DF
:102F7000013B03D533680BB33668F7E7B4F90C505F
:102F8000D5B9164BE36004F15800656600F047F8C8
:102F9000FFF796FFC4E90155C4E904552560A56112
:102FA0000822294604F15C00FFF714FFC4E90D551F
:102FB000C4E912552046F8BD6834D9E704213846E3
:102FC000FFF762FF044630600028D5D1FFF778FF95
:102FD0000C233B60EEE700BFBC4000000100FFFF98
:102FE0002DE9F8430646884600F148040027D4E955
:102FF0000195B9F1010905D52468002CF7D13846AF
:10300000BDE8F883AB89012B07D9B5F90E30013340
:1030100003D029463046C04707436835E9E7704783
:1030200070477047F8B5CD1C25F0030508350C2D09
:1030300038BF0C25002D064601DBA94203D90C231D
:1030400033600020F8BD00F0F3FD21490A68144602
:103050009CB9204F3B6823B92146304600F02AFB3B
:1030600038602946304600F025FB431C23D10C2351
:103070003360304600F0E2FDE3E723685B1B17D4C2
:103080000B2B03D923601C44256004E06368A24233
:103090000CBF0B605360304600F0D0FD04F10B0014
:1030A000231D20F00700C21ACCD01B1AA350C9E779
:1030B00022466468CCE7C41C24F00304A042E3D099
:1030C000211A304600F0F6FA0130DDD1CFE700BF1B
:1030D000200B0020240B00209368013B002B10B430
:1030E000936008DA9469A34201DB0A2903D15DF8F1
:1030F000044B00F033BB1368581C1060197008466D
:103100005DF8044B7047F8B506460F461446D518CF
:10311000AC4201D1002007E014F8011B3A463046CA
:10312000FFF7DAFF431CF3D1F8BD00002DE9F04FA3
:103130000D469DB014469846064618B183690BB9F2
:10314000FFF7D0FE894B9D421BD175686B6ED90786
:1031500005D4AB899A0502D4A86DFFF761FFAB894E
:103160001B0701D52B69EBB92946304600F05AFB05
:10317000C0B16B6EDC070ED54FF0FF301DB0BDE85F
:10318000F08F7B4B9D4201D1B568DFE7794B9D42C3
:1031900008BFF568DAE7AB899805EDD4A86DFFF7AD
:1031A00040FFE9E70023099320238DF82930CDF86B
:1031B0000C803023DFF8C0818DF82A304FF00109F0
:1031C00023469A4613F8012B0AB1252AF9D1BAEB06
:1031D000040B0BD05B46224629463046FFF793FF8F
:1031E000013000F0AA80099A5A4409929AF80030F6
:1031F000002B00F0A28000234FF0FF32CDE9052321
:103200000AF1010A049307938DF853301A93544638
:10321000052214F8011B584800F0BAFC049AD8B9EA
:10322000D10644BF20238DF85330130744BF2B230E
:103230008DF853309AF800302A2B15D0079A54464F
:1032400000204FF00A0C214611F8013B303B092BBE
:103250004ED9B0B1079214E0A0EB080309FA03F3CA
:1032600013430493A246D2E7039B191D1B680391E5
:10327000002BBBBF5B4242F0020207930793B8BF2B
:10328000049223782E2B0CD163782A2B35D1039B03
:103290001A1D1B680392002BB8BF4FF0FF33023496
:1032A0000593DFF8E4A021780322504600F070FC7B
:1032B00040B14023A0EB0A0003FA00F0049B034353
:1032C0000134049314F8011B2C488DF828100622B1
:1032D00000F05EFC00283FD0294B1BBB039B07334B
:1032E00023F0070308330393099B3B44099367E7E3
:1032F0000CFB02320C460120A5E7002301340593A4
:1033000019464FF00A0C204610F8012B303A092AD2
:1033100003D9002BC5D00591C3E70CFB012104465E
:103320000123F0E703AB00932A46164B04A930466D
:10333000AFF300800746781CD6D16B6ED90705D451
:10334000AB899A0502D4A86DFFF76BFEAB895B06CB
:103350003FF512AF099811E703AB00932A46094BDA
:1033600004A9304600F080F8E4E700BFE040000028
:1033700000410000C0400000204100002A41000040
:103380000000000007310000264100002DE9F04751
:10339000164699468A680B69DDF820809342B8BFCB
:1033A0001346336091F8432007460C460AB10133B7
:1033B00033602368990642BF33680233336025685F
:1033C00015F0060506D104F1190AE36832689B1A64
:1033D000AB4226DC94F84320131E226818BF012359
:1033E00092062BD404F1430249463846C0470130C7
:1033F0001ED02368E568326803F00603042B08BF7B
:10340000AD1AA36822690CBF25EAE5750025934231
:10341000C4BF9B1AED1800261A34B5421AD10020F9
:1034200008E00123524649463846C047013003D1DF
:103430004FF0FF30BDE8F0870135C6E7E1185A1CB0
:10344000302081F84300224494F8451082F843105C
:103450000233C7E70123224649463846C0470130B8
:10346000E6D00136D9E700002DE9FF470C4691462A
:10347000277E0C99782F80469A4604F1430207D89C
:10348000622F0AD8002F00F0D880582F00F0A380B8
:1034900004F1420684F842703AE0A7F16303152B69
:1034A000F6D801A050F823F00135000015350000D2
:1034B00091340000913400009134000091340000F8
:1034C0001535000091340000913400009134000063
:1034D000913400002136000045350000033600001D
:1034E0009134000091340000433600009134000014
:1034F0004535000091340000913400000B36000087
:103500000B681A1D1B680A6004F1420684F84230F9
:103510000123A3E0256808682E0600F104030AD5FC
:1035200005680B60002D03DA2D236D4284F84330CB
:103530005E480A2319E015F0400F05680B6018BFBC
:103540002DB2EFE70B682568181D0860280601D525
:103550001D6802E06906FBD51D8854486F2F0CBF1B
:1035600008230A23002184F843106668A660002E11
:10357000A2BF216821F0040121600DB9002E4DD0B9
:103580001646B5FBF3F103FB1157C75D06F8017D45
:103590002F46BB420D46F4D9082B0BD12368DF0719
:1035A00008D5236961689942DEBF302306F8013CE3
:1035B00006F1FF36921B2261CDF800A04B4603AA0C
:1035C00021464046FFF7E2FE01304CD14FF0FF307C
:1035D00004B0BDE8F087354884F8457023680E686C
:1035E0001F0656F8045B0E6014D5D90744BF43F09C
:1035F000200323601DB9236823F0200323601023D8
:10360000B0E7236843F0200323607823284884F838
:103610004530E3E75E0648BFADB2E6E71646BBE7D6
:103620000B68266860691D1D0D6035061B6801D595
:10363000186002E07106FBD518800023236116464E
:10364000BAE70B681A1D0A601E68626800213046DE
:1036500000F09EFA08B1801B60606368236100235C
:1036600084F84330A8E72369324649464046D047AC
:103670000130ABD023689B0713D4E068039B9842CA
:10368000B8BF1846A4E70123324649464046D04712
:1036900001309BD00135E36803995B1AAB42F2DC41
:1036A000EBE7002504F11906F5E700BF3141000002
:1036B0004241000038B5064D0023044608462B6001
:1036C00000F066FB431C02D12B6803B1236038BDB8
:1036D000B40B002010B50C46B1F90E1000F004FB3D
:1036E0000028ABBF636DA3891B1823F48053ACBFC4
:1036F0006365A38110BD2DE9F0411F468B89DB0571
:1037000005460C46164605D5B1F90E1002230022D7
:1037100000F0C8F9A389B4F90E1023F48053A381F3
:1037200032463B462846BDE8F04100F069B810B586
:103730000C46B1F90E1000F0B5F9431CA38915BF72
:10374000606523F4805343F48053A38118BFA381A1
:1037500010BDB1F90E1000F0D3B80000F8B50E4658
:103760001446054618B183690BB9FFF7BBFB214B23
:103770009C422BD16C68A369A360A3891A072FD53B
:1037800023696BB323692068C01A6369F6B2834268
:10379000374604DC2146284600F048F930BBA368D0
:1037A000013BA36023685A1C22601E7063690130CC
:1037B000834204D0A389DB0706D50A2E04D1214613
:1037C000284600F033F988B93846F8BD0A4B9C42C8
:1037D00001D1AC68CFE7094B9C4208BFEC68CAE74F
:1037E0002146284600F01EF80028CBD04FF0FF37C6
:1037F000EAE700BFE040000000410000C0400000D8
:1038000038B5074D04460846114600222A601A467C
:10381000FEF790F8431C02D12B6803B1236038BD3A
:10382000B40B0020324B70B51D6806460C4625B11E
:10383000AB6913B92846FFF755FB2E4B9C420FD1BD
:103840006C68A389B4F90C2019072CD4DD0611D4B7
:103850000923336042F04003A3814FF0FF303EE084
:10386000254B9C4201D1AC68EBE7244B9C4208BF3E
:10387000EC68E6E7580712D5616B41B104F14403E7
:10388000994202D0304600F0DFF900236363A38938
:1038900023F02403A3810023636023692360A389A9
:1038A00043F00803A38123694BB9A38903F4207370
:1038B000B3F5007F03D02146304600F029F9A089F6
:1038C000B4F90C2010F001030AD00023A36063694F
:1038D0005B42A361236943B910F08000BAD170BD87
:1038E000810758BF6369A360F4E70020F7E700BFD2
:1038F00020000020E040000000410000C040000027
:1039000038B5064D0023044608462B6000F020FA27
:10391000431C02D12B6803B1236038BDB40B0020D7
:103920008A892DE9F041054610070C4658D44B68AA
:10393000002B05DC0B6C002B02DC0020BDE8F081C5
:10394000E66A002EF9D0002312F480522F682B6013
:1039500032D0606DA3895A0705D56368C01A636BBE
:103960000BB1236CC01A00230246E66A216A28467E
:10397000B047431CA38906D129681D292CD82A4A9F
:10398000CA40D60728D500226260D9042269226085
:1039900004D5421C01D12B6803B96065616B2F60AF
:1039A0000029CAD004F14403994202D0284600F00D
:1039B0004BF900206063C1E7216A01232846B04724
:1039C000411CC7D12B68002BC4D01D2B01D0162B56
:1039D00001D12F60B1E7A38943F04003A381ADE794
:1039E0000F69002FA9D093070E6808BF4B690F60BD
:1039F00018BF0023A6EB07088B60B8F1000F9CDD11
:103A0000216AA66A43463A462846B047002806DCA3
:103A1000A38943F04003A3814FF0FF308EE70744B2
:103A2000A8EB0008E9E700BF0100402038B50B69AA
:103A300005460C4613B90025284638BD18B18369E0
:103A40000BB9FFF74FFA144B9C421BD16C68B4F9C9
:103A50000C30002BEFD0626ED00704D4990502D44D
:103A6000A06DFFF7DDFA28462146FFF759FF636E88
:103A7000DA070546E0D4A3899B05DDD4A06DFFF7E6
:103A8000D0FAD9E7054B9C4201D1AC68DFE7044B83
:103A90009C4208BFEC68DAE7E0400000004100000B
:103AA000C040000038B5074D0446084611460022C4
:103AB0002A601A4600F064F9431C02D12B6803B156
:103AC000236038BDB40B002070B50E46B1F90E105E
:103AD000002996B014461D4607DA00232B60B389EF
:103AE0001A0610D44FF480630EE06A4600F00EF917
:103AF0000028F2DB019A02F47042A2F500535A4208
:103B00005A412A60EEE740230020236016B070BDC2
:103B10008B8973B59D0706460C4607D504F147030C
:103B2000236023610123636102B070BD01AB6A466B
:103B3000FFF7CAFF009905463046FFF773FA48B908
:103B4000B4F90C309A05EFD423F0030343F00203D9
:103B5000A381E3E70D4BB362A389206043F08003A8
:103B6000A381009B6361019B20615BB1B4F90E10DE
:103B7000304600F0DDF828B1A38923F0030343F0B9
:103B80000103A381A0890543A581CDE77D2E000017
:103B900001F0FF01102A2BDB10F0070F08D010F8FE
:103BA000013B013A8B422DD010F0070F42B3F6D102
:103BB000F0B441EA012141EA014122F007047FF01B
:103BC00000070023F0E80256083C85EA010586EA72
:103BD000010685FA47F5A3FA87F586FA47F6A5FAAE
:103BE00087F68EB9EED1F0BC01F0FF0102F00702BA
:103BF00032B110F8013B013A83EA010313B1F8D165
:103C00000020704701387047002D06BF3546033845
:103C1000073815F0010F07D1013015F4807F02BF7E
:103C2000013015F4C03F0130F0BC0138704700BFCF
:103C30000148FFF7F5B900BFAC0B00200148FFF7C2
:103C4000F0B900BFAC0B002037B5002948D051F8BF
:103C5000043C0190002BA1F10404B8BFE418FFF765
:103C6000E7FF204A01981368154633B96360146072
:103C700003B0BDE83040FFF7E1BFA3420BD9216894
:103C80006218934204BF1A685B68636004BF5218ED
:103C900022602C60ECE71A465B680BB1A342FAD9AC
:103CA00011685518A5420BD1246821445418A34229
:103CB0001160DDD11C685B68536021441160D7E757
:103CC00002D90C230360D3E7256861198B4204BF36
:103CD00019685B68636004BF491921605460C7E7D5
:103CE00003B030BD200B002038B5074D0446084610
:103CF000114600222A601A46FDF72AFE431C02D113
:103D00002B6803B1236038BDB40B002038B5074DD4
:103D100000230446084611462B6000F021F8431C9E
:103D200002D12B6803B1236038BD00BFB40B002063
:103D300038B5064D0023044608462B6000F018F8FD
:103D4000431C02D12B6803B1236038BDB40B0020A3
:103D5000024B58221A604FF0FF307047B40B00201E
:103D6000024B58221A604FF0FF307047B40B00200E
:103D7000024B58221A600020704700BFB40B00208D
:103D8000024B58221A604FF0FF307047B40B0020EE
:103D9000044A05491368002B08BF0B4618441060FD
:103DA00018467047280B0020B80B0020FEE700BF24
:103DB000F8B500BFF8BC08BC9E467047F8B500BF18
:103DC000F8BC08BC9E4670474261636B656E6473C5
:103DD00020666C7573686564000000006170700097
:103DE0009C0500207F0000001C0600201B5B313B6F
:103DF00033316D0025734C6F67732064726F707080
:103E00006564202825642925730D0A001B5B306D2D
:103E100000000000257300003C25733E2025733A06
:103E2000200000000D0A000020253032780000003C
:103E3000202020007C000000256300001B5B313B3C
:103E400033306D001B5B313B33326D001B5B313B0C
:103E500033336D001B5B313B33346D001B5B313BF7
:103E600033356D001B5B313B33366D001B5B313BE3
:103E700033376D006572726F720000007761726E89
:103E8000696E6700696E666F0000000064656275A8
:103E9000670000000C3E00003C3E0000EC3D0000CE
:103EA000443E00004C3E0000543E00005C3E0000DA
:103EB000643E00006C3E000000000000743E000004
:103EC0007C3E0000843E00008C3E00004661746130
:103ED0006C206572726F720053797374656D207215
:103EE0006573657400000000FFFFFFFFFFFFFFFF29
:103EF000FFFFFFFFFFFFFFFF0000000000000000CA
:103F00000000D60106010000303132333435363737
:103F1000383941424344454650525300554152546A
:103F200000000000554152544500000054582065DF
:103F30006D707479000000006572726F723A20250E
:103F40006C6400001A0000001B0000000500000067
:103F5000070000000000000000E0D70100000000A2
:103F60000338FDD870470000000001010000000187
:103F70000100000000000000000000000000000040
:103F80000338FDD870470000B92900002D2A000031
:103F9000B52900007274745F6C6F675F6261636B58
:103FA000656E64005465726D696E616C000000009E
:103FB00052545400534547474552000020202020CA
:103FC00020202020202828282828202020202020C9
:103FD00020202020202020202020202088101010A9
:103FE0001010101010101010101010100404040401
:103FF0000404040404041010101010101041414176
:1040000041414101010101010101010101010101E0
:104010000101010101010110101010101042424273
:1040200042424202020202020202020202020202B0
:104030000202020202020210101010200000000012
:104040000000000000000000000000000000000070
:104050000000000000000000000000000000000060
:104060000000000000000000000000000000000050
:104070000000000000000000000000000000000040
:104080000000000000000000000000000000000030
:104090000000000000000000000000000000000020
:1040A0000000000000000000000000000000000010
:1040B00000000000000000000000000024000020BC
:1040C00000000000000000000000000000000000F0
:1040D00000000000000000000000000000000000E0
:1040E00000000000000000000000000000000000D0
:1040F00000000000000000000000000000000000C0
:1041000000000000000000000000000000000000AF
:10411000000000000000000000000000000000009F
:10412000232D302B2000686C4C00656667454647A0
:104130000030313233343536373839414243444523
:104140004600303132333435363738396162636492
:0841500065660000000000009C
:10415800183F0000000000001C3F000000000000A5
:10416800243F000000000000DC3D000000000303C5
:10417800883F000000000000943F00001800002065
:10418800AC000020740100207C010020B400002055
:04419800180000000B
:08419C00A4C0FF7F0100000038
:1041A400000000000020004000000000002000404B
:1041B400000000000090D00300000000FF00000099
:1041C4002400002000000000E04000000041000046
:1041D400C0400000000000000000000000000000DB
:1041E40000000000000000000000000000000000CB
:1041F40000000000000000000000000000000000BB
:1042040000000000000000000000000000000000AA
:10421400000000000000000000000000000000009A
:0C42240000000000250200000102000064
:04000003000002BD3A
:00000001FF
